:020000040800F2
:1000000000200010ED2303085524030879F10008AF
:100010005524030855240308552403080000000054
:10002000000000000000000000000000552403084C
:10003000552403080000000055240308D5380208A1
:1000400055240308552403085524030855240308A0
:1000500055240308552403088D400208B9410208BD
:100060007D4102084141020805410208C56A0208B3
:10007000B56A0208A56A0208956A0208856A02083C
:10008000716A02085D6A02085524030855240308B2
:10009000552403085524030855240308C9400208C1
:1000A00025280208312B020859270208AD2C020826
:1000B000752A0208B9290208F12802085524030804
:1000C0005524030855240308552403085524030820
:1000D000552403080D3A020891390208153902081F
:1000E00051400208552403085524030855240308E9
:1000F00055240308552403085524030855240308F0
:10010000000000000000000000000000552403086B
:100110005524030855240308E17A0008CD7A000825
:10012000496A0208356A0208216A02080D6A020853
:10013000F9690208552403080000000000000000CF
:100140005524030855240308552403080000000023
:10015000000000000000000000000000000000009F
:100160000000000000000000552403085524030887
:1001700055240308000000000000000000000000FB
:080180000000000055240308F3
:10018800174B9FED185A1B681844BFEE007A437A44
:1001980006EE103AC378A0EE007A07EE903A83791B
:1001A800B8EE466A05EE903A60EE850AF7EE006A08
:1001B800F2EE044AB0EE664A20EE240AA6EE204A81
:1001C80027EE057AF8EEE55AF8EEE77AE5EE876A63
:1001D80067EE807A24EE270A20EE260A704700BFD1
:1001E800B07500200AD7233C2C4B1B681844837930
:1001F8009BB107EE903ADFED2A6AF8EEE77A20EE37
:10020800A07A67EEA67A27EE207AF7EE006AD7EE94
:10021800877A77EEA67A20EE270AC378DFED206A80
:1002280007EE903AF8EEE77AB0EE007A67EEA67A33
:10023800F4EEC77AF1EE10FA05DD37EEC77ADFED96
:10024800196AE7EE267A437A9FED177A20EE070AB5
:1002580020EE270A03B3DFED127A9FED147A06EE3B
:10026800903A60EEA77AF8EEE60A60EEA70AF4EE96
:10027800C70AF1EE10FA04DDDFED0D7A20EE270A49
:100288007047F5EEC00AF1EE10FA05D4F7EE007AE1
:1002980077EEE00A80EE200A704700BFB0750020B4
:1002A8000AD7233CD7A3684100004843A4707D3F88
:1002B8000000C842D0E90920101AB0FA80F04009BD
:1002C800704700BF0171704703799B070AD5436ADD
:1002D8008269D154436A01690133B3FBF1F201FB2E
:1002E80012334362704700BF037913F0010317D03C
:1002F800D0E90731C26810B45B1A541E23400BD0F2
:1003080043694C1C5B5CB4FBF2F102FB11420262D4
:100318005DF8044BD8B2704718465DF8044B704737
:1003280018467047037913F0020308D0D0E9092171
:100338000369581E531A0340DBB2C01A70471846A7
:10034800704700BF037913F0010306D0D0E90731E5
:10035800C268581A531E184070471846704700BFA5
:10036800F0B45D4E5D4832785D4B5E4DDC6B2D78A8
:100378000132A0FB0270000900EB8000A2EB8000B4
:100388001A683070914201EB04005C6811D293F84E
:100398004520002A4ED000F58030B0FBF5F08442AD
:1003A8000BD2041B4FF4803292FBF5F2A21A9A602A
:1003B8000AE0B0FBF5F0844244D34FF4803292FB5C
:1003C800F5F2121B02449A6040F68C240025A242E2
:1003D800C3E9001083F8455017D993F8402093F9E2
:1003E80042108A4256B241D0002093F9411083F856
:1003F80043008A4247D00121002283F8426083F8F3
:10040800441083F84020F0BC704793F8441000294A
:10041800F9D0A2F2EF2040F2DA5188421AD893F8C4
:1004280040100B2916D803EB81000131C26083F814
:100438004010E8E7B0FBF5F08442BED2041BA21AD4
:100448009A60C1E793F84520002AAAD1041BA21A92
:100458009A60B9E7244A002102F1300083F8441079
:1004680042F8041F8242FBD1F0BC7047111F0829D3
:10047800BAD893F84310182926D8013183F84310C5
:1004880093F94110B5E793F844100029B3D0FAB1B5
:100498001649154C0FFA82FC084601EB4C0754F834
:1004A800045F20F8025BB842F9D10B2A07DC104838
:1004B80001EB4C02002122F8021B9042FBD10D49AE
:1004C8000A7801320A7096E783F84160314690E76E
:1004D80094460649EBE700BF001C0020CDCCCCCCED
:1004E800E44E0020AE190020EC4E002044300020DD
:1004F8005C3000203830002030B40E4D0E4B2A7886
:100508000E4C0132A3FB02031B09E06B03EB8303D0
:10051800A2EB83034FF6FF72914200F101002B70AA
:10052800084408BF0123E06308BF84F8453030BCA5
:10053800704700BF001C0020CDCCCCCCE44E00207E
:10054800002800F04081B54B1A7CF0B4002A40F036
:100558009D801968002201280A6043D093F828106A
:10056800002941D19969002202280A603AD093F8FB
:100578004010002961D1196B002203280A6031D08C
:1005880093F85810002940F0AA80996C002204289A
:100598000A6027D093F87010002940F01581196E71
:1005A800002205280A601DD093F88810002940F021
:1005B8003F81996F002206280A6013D093F8A01093
:1005C800002940F05D81D3F89010002207280A60C6
:1005D80008D093F8B810002940F0CB80D3F8A830A1
:1005E80000221A60F0BC7047D9698D4D8C0AAC4264
:1005F8000ED040F2B0808B4A944200F0CF81013295
:10060800944200F0A981023A944200F0C981FE2286
:10061800EFF31184502585F31288834E4F6A4D6994
:1006280002EB820206EBC202013745F00105576270
:10063800E4B24D6184F3118894E7596B784D8C0AC4
:10064800AC420ED000F24481784A944200F0AA816C
:100658000132944200F08481B4F5801F40F041815A
:100668000122EFF31184502585F312886E4E4F6AEC
:100678004D6902EB820206EBC202013745F0010523
:100688005762E4B24D6184F3118874E75A68644C88
:10069800910AA14200F0768150D9624CA14200F043
:1006A80079810134A14200F07181023CA14200F03D
:1006B8005B81FE21EFF31184502585F312885A4E91
:1006C800576A556901EB810106EBC101013745F015
:1006D80001054F62E4B2556184F3118839E7D96C9A
:1006E8004F4D8C0AAC420ED000F2FD804F4A944226
:1006F80000F05E810132944200F03881B4F5801F29
:1007080000F05881FE22EFF31184502585F31288FA
:10071800454E4F6A4D6902EB820206EBC202013771
:1007280045F001055762E4B24D6184F31188996C74
:10073800002204280A607FF42DAF53E74A3CA14207
:1007480000F026810134A14200F01E81B1F5801F1E
:10075800AFD10121AEE7354A944200F01D81013244
:10076800944200F0FB80B4F5801F7FF450AF012263
:100778004EE7D3F8AC102A4C880AA0420ED040F2BB
:10078800E080284A904200F037810132904200F020
:100798003181023A904240F0DD800422EFF311806B
:1007A800502484F31288204D4E6A4C6902EB820271
:1007B80005EBC205013644F001046E62C2B24C6119
:1007C80082F311880AE77047596E154D8C0AAC42BE
:1007D8000ED000F29480154A944200F0CD80013288
:1007E800944200F0EF80B4F5801F00F0E980FE220B
:1007F800EFF31184502585F312880B4E4F6A4D692B
:1008080002EB820206EBC202013745F0010557628E
:10081800E4B24D6184F31188C1E600BF304F002077
:100828004B001000510010007C4600200100100011
:10083800D96F724D8C0AAC420DD06CD8704A944274
:1008480000F09C800132944200F0C080B4F5801F13
:1008580000F0BA80FE22EFF31184502585F3128848
:10086800684E4F6A4D6902EB820206EBC2020137FD
:1008780045F001055762E4B24D6184F3118898E6AA
:10088800D3F894105D4D8C0AAC420CD04ED95E4A18
:10089800944200F0A7800132944200F0A180023A0D
:1008A80094424CD10422EFF31184502585F3128829
:1008B800544E4F6A4D6902EB820206EBC2020137C1
:1008C80045F001055762E4B24D6184F311887AE678
:1008D8004D4A94426AD00132944243D0023A94423B
:1008E80062D0FE22BDE6484A944265D00132944265
:1008F8003ED0023A94427FF405AF042203E7424A0D
:10090800944237D00132944258D0023A94427FF44C
:100918006EAF04226CE73C4A944231D001329442D3
:1009280056D0023A944295D1042294E7344A94422C
:1009380052D0013294424DD0B4F5801F4ED0FE22E1
:10094800B1E72F4A904253D0013290424ED0B0F5D1
:10095800801F49D0FE2221E7062259E6032257E6E6
:1009680003227EE606227CE60421A3E60322CAE6E9
:100978000622C8E605223BE7022239E702226AE797
:10098800052268E7002195E6032193E6062191E612
:1009980002218FE605218DE6022239E6052237E697
:1009A800042235E602225CE604225AE6052258E6CD
:1009B8000222A8E60122A6E60522A4E6062217E7F7
:1009C800012215E7032213E7012244E7032242E745
:1009D800062240E7032266E7022264E7012262E773
:1009E800062260E705225EE70122D7E60322D5E664
:1009F8000222D3E60622D1E60522CFE64B001000FC
:100A0800010010007C46002051001000704700BF14
:100A180070B4150BC2F30324064605EB450504EB39
:100A280044044800C2F303131835183402F00F02C7
:100A3800356003EB430346F8214002EB42020144D0
:100A48001833183246F82030062046F8212070BCAA
:100A5800704700BF2DE9F04F12F4004F14BF4FF05C
:100A68000E0B4FF0070B12F4804F14BF4FF00E0A15
:100A78004FF0070A12F4005F14BF4FF00E094FF051
:100A8800070912F4805F14BF4FF00E084FF00708F3
:100A98004FEA410C12F4006F83B001EB0C0714BF4E
:100AA8004FF00E0E4FF0070E12F4806F01EB0706A1
:100AB80014BF0E2307238D190193034612F4007FF8
:100AC80001EB0504C3F800B018BF0E2043F821A0BD
:100AD80008BF072043F82C9012F4807F01EB040C28
:100AE80043F8278043F826E001EB0C0714BF4FF0CA
:100AF8000E084FF00708019E43F8256012F0800F9A
:100B080001EB070614BF4FF00E0E4FF0070E12F060
:100B1800400F43F8240001EB060514BF0E20072000
:100B280012F0200F43F82C8001EB050414BF4FF09E
:100B38000E0C4FF0070C12F0100F43F827E043F8A3
:100B4800260018BF0E2701EB040008BF072712F084
:100B5800080F43F825C018BF0E2643F8247008BFB5
:100B680007260C1812F0040F43F8206018BF0E2552
:100B780001EB040008BF072512F0020F43F82450C8
:100B8800014414BF0E24072412F0010F43F820403B
:100B980014BF0E220722122043F8212003B0BDE81B
:100BA800F08F00BF704700BF70B4044600F16C06B8
:100BB800064D0FCD2D88258220606160A260E3601C
:100BC8001234B442F4D170BC704700BFB82803088F
:100BD800034B33F8142F02809B788370704700BF53
:100BE800B828030870B4104A104BB2F90060B2F983
:100BF80002501C780E4940F6E44202FB00F2120B48
:100C080042F2107303FB02F393FBF6F32B4481FBD0
:100C18000310222C4FEAE373C3EBA00002D1054B6B
:100C28001A80588070BC70477E2C0020C952002062
:100C380067666666D4520020084B596869B130B4BB
:100C48009D68074C0020642202FB05F25860B2FB45
:100C5800F1F29860228030BC70477047001C002079
:100C6800D27E002070B505466C0031F03FFD284962
:100C7800631901EB43131E7B06B970BD254AD6687C
:100C880080B21EB1167D0EB9567D66BB2C4401EBB1
:100C98004414214B227D208142EA400290B2021284
:100CA80082EA1012424002F00F0242EA00121B7858
:100CB8001A480026267592B20668DBB9602000FB48
:100CC800051018300121B04721696368B1F82C215B
:100CD8006489DB682243A1F82C2158601A6842F025
:100CE80001021A6070BD2A44907D0028CED00122EE
:100CF8001A75CBE7636820695B7903F0FC030C3352
:100D080018440421B04723698000188170BD00BFD2
:100D1800C45E0020001C0020C05E0020B85E0020D9
:100D280038B500EB4000084DC4002B1993ED027A4A
:100D3800D3ED037AE7EE007AB0EE670A31F0D6FC1D
:100D48002B59186038BD00BF304F0020F8B5A0F50A
:100D5800197423796179DB0746D594F84832206CF9
:100D68000BBB94F84B32012B3FD0002B41D194F8A8
:100D78004A3294F849629E420CD9B4F852220127AB
:100D880007FA03F501332A43DDB2AE4292B2F7D82F
:100D9800A4F852220123C94384F84B321940BDE814
:100DA800F8401AF0C7BC0268D36A5B08536294F82B
:100DB8005932012B07D094F84D3223B1B4F854328C
:100DC8000133A4F85432C94301F001011AF0B2FC0E
:100DD8000023012284F84B2284F8493284F84A32ED
:100DE800A4F8523284F84832F8BD94F8493284F8AD
:100DF8004A32002384F84B3201F00101BDE8F84083
:100E08001AF098BC10B5437903F0200113F0010FD4
:100E1800036C04461A7A806B11D000290CBF42215A
:100E2800022121F039F9236C012284F84C22A4F81C
:100E3800482259791868BDE810401DF0F3BF002911
:100E48000CBF2221022121F027F9ECE70F4AB2FB5F
:100E5800F1F3B3F5803F10B44FF01B0407D3013C06
:100E68000BD05208B2FBF1F3B3F5803FF7D299B239
:100E7800064A5DF8044B22F017B80123034AB3FB76
:100E8800F1F35DF8044B99B222F00EB800A24A04BF
:100E98008160006CDAE700BF436CC06B1BB11A7A43
:100EA800012121F0F9B819F099B800BF4379C06B56
:100EB800DB0748BF81F0010109B923F063B823F0CB
:100EC80067B800BF38B5A0F517742379990741D4DE
:100ED800D80700D438BD94F84832002BFAD194F8DA
:100EE80049320133DBB2092B84F849326AD00A2B24
:100EF800F0D194F84B52B4F85232002D00F09C8097
:100F0800990503F0010200F19E80002A00F09B8001
:100F18001A46E36A5208002B00F09E80D0B2216B7B
:100F2800984794F84B5201220023954284F849329D
:100F380084F84822CED1617984F84B321140206C74
:100F48001AF0F8FB236C2A4659791868BDE838402E
:100F58001DF068BF94F84D226ABBD4E90950854258
:100F680094F84C1245D0451CA369A5621B5C206906
:100F7800DBB285424FEA430328BFA26243F4007301
:100F88000A200122A4F8503284F84E0284F84D2237
:100F980011B1627915073ED45A08A4F8502203F01B
:100FA80001012046FFF782FF94F84E222379013A87
:100FB80084F84E228CE794F94E22002A5BD184F8FB
:100FC8004D2285E794F84B32002B83D194F84A32AE
:100FD800082B3FF67FAFB4F85222012000FA03F144
:100FE80001330A43D9B2082992B2F7D9A4F8522298
:100FF80038BD00297FF46CAF627912077FF568AFBE
:10100800636CE06B2BB31A7A21F046F82046FFF7A1
:10101800F9FE23795CE7236C0022597918681DF0E2
:1010280001FFA06B19F07AF8002384F84C322046AF
:10103800FFF732FF23794BE743F001029B05A4F841
:1010480052227FF566AFB4F856320133A4F856320F
:1010580069E719F063F8D9E7E3696169D2B2CA545C
:10106800E369E16894F84B520133B3FBF1F201FBF9
:101078001233E36157E7B4F850328DE7044B93F825
:101088003420586A0AB922F07DBF22F081BF00BF20
:10109800001C0020044B93F83420586A0AB922F047
:1010A80077BF22F06FBF00BF001C0020174810B5A3
:1010B80002210246002303E0112B08D092F82210E7
:1010C80011F0040F03F1010302F11C02F4D0C3EB89
:1010D800C30300EB8303187921F012FB044618B10F
:1010E800112200238271C3712021204622F0D0FDF5
:1010F8000A2022F0E9FA204622F09CFF044B00283F
:101108000CBF012202221A7010BD00BF80340308F0
:10111800387E0020744B1B7873B170B5734B744DD7
:101128009B79AC6BA863013B041B032B00F29780EF
:10113800DFE803F01E5981076E4AC2E90033936065
:101148007047D5F88430C31A002B0ADD00F5C33484
:101158000022A034114601236E20C5F884400BF00C
:1011680017F9D5E92212634BC3E901211A6070BD52
:10117800614A624BD27933F81260B6B23046FFF753
:1011880031FD07EE906AA864B8EE670A5C481FF064
:1011980031FEBCEEC00A10EE103A98B2FFF722FDFD
:1011A800A96CD5ED107ADFED576A524B686401FBE4
:1011B80004F207EE102AB8EEC77A534A1860E7EE31
:1011C800267A107859602228BDEEE77AC5ED107AA4
:1011D80017EE102A83ED027A85ED0F7AC7D14B4BB3
:1011E8009980DA8070BD2FF093F9494B49491A78F4
:1011F8004B8802F00102002837D04748AB67D0ED92
:10120800037A002A45D103FB04F207EE902ADFEDAA
:101218003D6A384AB8EEE77AD5ED1D7AE7EE267AC8
:10122800C2E90033BDEEE77AC5ED1D7A85ED1C7A7B
:1012380082ED027A70BD394B1B681B0197D5FF20E0
:1012480027F092FC18B103780A2B30D90020034606
:10125800284AC5E91F03C2E90033906070BD254BD9
:101268000022C3E900229A6070BD2C4E3668F6064B
:10127800C3D5AB67002AC6D0B1F90010284A00FBD5
:1012880001F082FB0012C017C0EBA2100344AB6749
:10129800B9E7FDEEE77A234E17EE900AA0F57A70CB
:1012A80000FB00F2A6FB026200EB1210E4E71E4A04
:1012B8001E4B51881A68D0ED027ADFED1D6A1D4C6D
:1012C800436802FB01F207EE102AF8EEE77AB8EE5F
:1012D800477AA4FB0121E7EE267A03EBD103FDEE62
:1012E800E77A17EE900AB3E7687500204670002089
:1012F800001C0020C4720020705E0020905E002058
:101308004C1C00202FE33E31C9520020D45200204B
:1013180018550020862C0020DC7100204C4E00203F
:10132800D34D62101F85EB5188730020203E0020AA
:101338007D219534CDCCCCCCF8B5454B5B79012BD0
:1013480033D0022B0ED0434B00221A60424B1B783D
:10135800022B00D0F8BD3F4A404B518812881980B3
:101368005A80F8BD3E4B1B681B01EFD5FF2027F0C4
:10137800FBFB002867D003780A2B56D99FED390A62
:101388000023394C04F19400A4F892301FF032FD88
:10139800BCEEC00A10EE103A9BB2A4F890302D4A69
:1013A800B4F8921051801380D0E7304A304B9278CD
:1013B8002D4C33F812102F4F8DB207EE905A04F1CE
:1013C800BC00B8EE670A1FF015FDBCEEC00A3978FC
:1013D800DFF8A8C07E781F4810EE103A40F6E442C5
:1013E80002FB01F29BB202FB05F102FB03F3ACFB2B
:1013F8000323ACFB011244F6FB71BD7801EB5313D8
:1014080001EB5211C6EB0632B3FBF2F3B1FBF2F279
:10141800B3FBF5F3B2FBF5F29BB292B2A4F8B83085
:10142800A4F8BA200380428090E7B0F9022012495C
:10143800D31781FB0212C3EBA2039BB207EE903ACB
:10144800B8EE670A9DE7084CB4F89030A7E700BFEC
:1014580046700020E8720020C9520020D4520020B3
:101468004C4E002000000000001C0020705E002090
:10147800905E0020792C0020676666661F85EB5118
:1014880070B5304D304C31496A79314E31480423BA
:101498000B7084F8E03000216423012A84F8E930D5
:1014A800A4F8E210A4F8E41084F8E810C4F8EC10EA
:1014B800317001602DD0022A0ED0A979264A002366
:1014C8000229136084F8F030C2E9013334D00429CA
:1014D8002DD001290ED070BD282204F1900031F0E2
:1014E80079F944F620619FED1D0A04F1940024F077
:1014F800B3F8E2E71A4AE363C2E90133D3609FED28
:10150800190A02F1100044F62061BDE8704024F089
:10151800A3B8282204F1B80031F05CF944F6206140
:101528009FED0E0A04F1BC0024F096F8C5E70E4AB8
:10153800C4F88830536070BD0C4A2367C2E9013390
:1015480070BD00BF46700020001C002044700020C1
:1015580068750020E8720020C4720020CDCCCC3D14
:101568003C1C0020CDCCCC3E881C0020701C0020E8
:101578002DE9F8439A4D2C68E60500F1C180994A97
:10158800994B92F80080994F00221A70B8F1000F19
:1015980000F0C4800921964824F028FE002800F0B5
:1015A800AA8044F01004934A934B16682C6016F4F2
:1015B8008056B3F9069065D1904B9B8A4B4574DCF5
:1015C80044F040048E4B2C601B78180706D41E216B
:1015D800874824F00BFE002800F0B08024F0800437
:1015E800884B1B88642B884B1B688CBF44F4806431
:1015F80024F48064590703D5B7F8F220002A59D19A
:10160800B7F8F420002A53D1804BD3F8B030002B20
:1016180050D124F400647E4B2C6003F1780102E081
:101628000633994216D01A781F2AF9D19878DA78B1
:10163800904202D35A79002AF2D01F216C4824F034
:10164800D5FD20B1734B1B785B0740F1928044F4C1
:1016580000742C602221664824F0C8FD68BBB8F1EC
:10166800000F30D0002C44D1002387F8F63021F049
:10167800D9FFD7F8F830C01A00283FDBBDE8F84397
:101688000AF0B0BE18215A4824F0B0FD002893D1C2
:10169800614B1A7B002A8FD15849DA884B8A991AEC
:1016A80049458DDA13444B458ADD24F0400489E727
:1016B8009A07A9D544F40064ADE744F400342C60DB
:1016C800B8F1000F15D1554B1B78002B39D198462E
:1016D800002E40D10021464824F088FD002851D032
:1016E800002CC1D0B8F1000F03D1002E45D000283E
:1016F80044D00223B9E724F0100454E7BDE8F88386
:10170800474A484B91791A684FF47A7303FB01F3FF
:1017180093429CBF24F480742C6030E7424A97F8C7
:10172800F13016780BBB0EB34146314824F05EFD0C
:10173800002842D124F008042C6017E044F080040B
:101748004EE724F4002828F40068B8FA88F84FEA2D
:101758005818002EBED01821254824F047FD00BB9C
:101768002D4B1B7B6BB30646B4E796BB87F8F1603D
:1017780010E724F400742C606CE7A0B924F400246A
:101788002C606FE724F02004014619482C6024F0EF
:101798002DFD64B900287FF467AF24F400242C6081
:1017A80060E7002696E744F400242C60A1E7B8F12E
:1017B800000F9CD1002E9AD1DFE744F008042C607A
:1017C800D4E724F4002626F04006B6FA86F6760911
:1017D80080E74146064824F009FD0028C6D1A9E75C
:1017E8001872002000000020D87B0020001C002078
:1017F800103600204C4E002018730020D0500020D6
:10180800FC7B0020D27E0020504E0020C4470020E0
:10181800F8390020185500204C810020743600202B
:10182800C17B0020203E0020D9710020F8B5714A04
:101838001378D80700D4F8BD23F00103137021F002
:10184800F1FE6D4B6D4C9A78C4F8FC00002A2CD13F
:101858006B4B1B88002B4FD16A4A6B4B1178186869
:1018680081F0010122F09AFB684E694D33782BB163
:101878002B781BB1674B1B68D9045CD5664B1B687A
:1018880000222A709A06D6D4644B1B689B0300F189
:10189800A780634900220B461878042803F10C033B
:1018A80033D00132182AF7D1C5E71B79022BCFD0E4
:1018B8005C4D2B780B2B18D801229A4040F6030177
:1018C80012EA0106C4D112F4C06F0ED0093B012BF5
:1018D8000BD8452014F01AFCFF2014F017FC5248CE
:1018E80014F086FB304614F011FC504A504B126835
:1018F8005A600B232B70ABE74E4B5A69002AB3D0C2
:10190800196800220A605A74AEE7D4F800515300EF
:1019180035B1981801EB80006D784078A8428AD2DA
:101928001A4401EB82010023C4F80011A4F8043121
:10193800C4F80831F8BD404B1F7821F073FE3378A6
:10194800002B9BD0E268002A98D100F51C5010307B
:101958000A214FF47A72E06061752261002F3BD052
:101968003A461421354830F035FF354A1389012F9E
:10197800B3FA83F34FEA53132ED0B2F86810002954
:1019880018BF0023022F27D0B2F8C810002918BFAB
:101998000023032F20D0B2F82811002918BF0023F4
:1019A800042F19D0B2F88811002918BF0023052F79
:1019B80012D0B2F8E811002918BF0023062F0BD067
:1019C800B2F84812002918BF0023072F04D0B2F834
:1019D800A822002A18BF002383F0010323754DE7CE
:1019E800184B1B78032B7FF454AFBDE8F8400AF07E
:1019F8000FBF00BF18550020FE7B0020001C0020F0
:101A0800F83D0020FA3D0020FC3D0020B05E00209B
:101A1800D87B00204C4E00201872002078810020CE
:101A2800BC4003086E2E0020E4550308203E002029
:101A380044360020003E0020116F0020161C0020B4
:101A4800C45E0020447000202DE9F04FDFF8B49305
:101A5800E24AD9F80C111368E14C2DED068B411AB6
:101A680095B00B4407901360C9F80C0163682046D1
:101A78000AEE101A9847002800F05A81D4F8B0509E
:101A8800002384F86030002D40F09580B4F9503080
:101A980094ED085AD4ED095A94ED0A6A94F85E1048
:101AA80006EE903AB4F9523007EE103AB4F95430D1
:101AB80007EE903AF8EEE66AB8EEC77AF8EEE77AFB
:101AC80076EEC56A37EE657A77EEC67A064604F191
:101AD8002C00C4ED0B6A84ED0C7AC4ED0D7A16F077
:101AE8000DF9C04B1B78002B00F02282DFF818A3F9
:101AF800BD4B9AF800701968069604F12C0B5E46E7
:101B08003A46F6EC018AD4ED077A01F00051132A1F
:101B18002F4604F5CC780D469B4668EEA78A42D03E
:101B2800062A08D1B0EE680A059230F0DFFDAF4B07
:101B3800059A23F8170015B1002F04F0E182B0EEE2
:101B4800680AD4F8943140469847D4F8043208F12A
:101B580070009847D4F8B430A8F1E0009847D4F85A
:101B68002431A8F170009847DBF8005005F00055C3
:101B7800F0EE408A01372B46002D40F0CA839AF8D0
:101B88000020032A00F0B083032FC6ED028A00F07C
:101B9800BD83F6EC018AD4ED077A132A08F12408EC
:101BA80068EEA78ABCD104EB47039049B3F85030DC
:101BB80021F81730BFE78E4A8E4E908B3168DFF8D8
:101BC80048A28A4B92F801809AF800C042F2107736
:101BD80007FB00F7B7FBF1F7B4F95010B3F90600AB
:101BE800BD4207EE901A00F0578294ED1A7AD4F8A5
:101BF80084E0F8EEE77A0EF1010137EE277A012941
:101C0800C4F8841084ED1A7A02F09783D4ED1D5A33
:101C1800D4ED1F6A07EE101A37EEE56AB8EEC75A18
:101C2800012D86EE057A37EE257A77EEC77A84EDB0
:101C38001E7AE7EE866A84ED1D7AF0EE667AC4EDC8
:101C4800206AC4ED1F6A03F01480B4F9521094EDB1
:101C58001B7A07EE901AD4F89810F8EEE77A01F19B
:101C6800010C37EE277ABCF1010FC4F898C084ED57
:101C78001B7A02F00387D4ED225AD4ED246A07EECA
:101C880010CA37EEE56AB8EEC75A012D86EE057A16
:101C980037EE257A77EEC77A84ED237AE7EE866AFF
:101CA80084ED227AF0EE667AC4ED256AC4ED246AE2
:101CB80002F0EC87B4F9541094ED1C7A07EE901AF0
:101CC800D4F8AC10F8EEE77A01F1010C37EE277A78
:101CD800BCF1010FC4F8ACC084ED1C7A00F0168288
:101CE800D4ED275AD4ED296A07EE10CA37EEE56A13
:101CF800B8EEC75A012D86EE057A37EE257A77EECB
:101D0800C77A84ED287AE6EE276A84ED277AF0EE22
:101D1800667AC4ED2A6AC4ED296A02F0E087D880A1
:101D2800D4F8B0309AF80070013BC4F8B03004E041
:101D3800DFF8D4A02F4E9AF800702F4B94ED0E5A6E
:101D4800D4ED0F6AD4ED107A99ED443AD9ED453ABD
:101D580099ED464AD3ED005A93ED016A93ED027A64
:101D6800264994F8F02286ED015AF0EE4A4AFAEE36
:101D7800EF4A35EE033A76EEA33A37EE844AE4EEBC
:101D8800835A052F0A70A4EEA36AA4EE247A89ED7B
:101D9800445AC3ED005AC6ED026A83ED016AC9EDE3
:101DA800456AC6ED037A83ED027AC9ED467A51D0C9
:101DB800134AD9F81C311178B3FBF1F201FB123246
:101DC8000133C9F81C310AB39AF80030012B34D01A
:101DD80015B0BDEC068BBDE8F08F00BF687E002013
:101DE800C4470020463800204C4E0020D452002022
:101DF80094470020B44700206C7E0020C852002081
:101E080054360020001C0020C95200208F4B1B783C
:101E18003BB38F4B8F49B3F906208B8A05919A42C1
:101E280021DC8D4B1B780E2B1DD0082B1BD08B492A
:101E38008B4A00238B60936015E08A4B8A4A1968A5
:101E480012888A4BC96919805A8015B0BDEC068B77
:101E5800BDE8F08F21F0E6FB079A844B801A1880C2
:101E6800A6E77C4B059399F82031002B40F07A8245
:101E78007F4A0892059890F82510012940F086813C
:101E880099F850217B4C002A40F0DC820027C4F8E6
:101E98009C70059F90F82A0089F850114FF6FF753D
:101EA80097F826102270C4F89820C4F8A020C4F827
:101EB800A450A4F89410002801F0C98697F82700C8
:101EC800A4F89600002943F08981002842F02E8763
:101ED800694F01213D7889F85111002B40F0B882F3
:101EE80005EA0103069345FA01F309934FEAA508A9
:101EF8004FEAE50B059B069A93F82930002A01F072
:101F0800D78699ED557A099A5449D70781ED007A11
:101F180042F1048799ED567A81ED017A18F0010FA4
:101F280042F000871BF0010F41F0BA8601F0BCBEF9
:101F3800524A06921D4604F12C0704F5CC7A04F5A2
:101F4800027B04F1B808D4ED077AB7EC010AD4F89B
:101F5800942120EE270A0AEB05009047D4F80422C2
:101F68000BEB05009047D4F8B42008EB0500904728
:101F7800434BD4F8242158199047069B1A689200BD
:101F880000F1DD8124356C2D87ED020ADBD1DFF805
:101F980000A11B689AF8007003F00053394A517E7B
:101FA80011B983BB384EC8E6D4ED107AB2F91A10CD
:101FB80094F8F002FDEEE77A17EE902A002AB8BFEF
:101FC8005242002801F0038607EE901ADFED2F6ACF
:101FD800B8EEE77A07EE902A37EE667AF8EEE77AF7
:101FE800B4EEE77AF1EE10FA42F30E87D4F8EC2259
:101FF800079844F62061821A8A42D2DD002284F8CA
:10200800F022002BCED094F8F43294F8F522013364
:10201800DBB29A4284F8F43202F0988594F8F834E6
:10202800002BBFD0102F03F0D78594F8F9244FF078
:10203800000B062A02F26C83DFE812F08E130413F9
:102048001513CE119912C2144F1400BF00000020BE
:1020580018730020D050002034380020DC71002094
:1020680050540020A43D0020D27E0020D4520020ED
:10207800AC7500208C510020345200204C4E0020BA
:10208800EC48002094470020B44700200000C842D4
:10209800C95200200AD7233CF8EEE77A01214FF015
:1020A800000E8D42C4ED1A7AC4ED1E7AC4ED1D7A75
:1020B800C4F820E0C4F87CE0C4F8841002F046813B
:1020C800B4F9521007EE901A4FF0010CF8EEE77AC7
:1020D80000216545C4ED1B7AC4ED237AC4ED227A4C
:1020E8006162C4F89010C4F898C002F0D184B4F9C1
:1020F800541007EE901AF8EEE77A4FF0000C012121
:10210800C4ED1C7AC4F828C0C4F8AC100021012D15
:10211800C4ED287AC4ED277AC4F8A4107FF4FFAD83
:1021280007EE907AD4ED1C5AB2F914205FED276AB5
:10213800B449D880B8EEE76A07EE102AC5EE867A69
:10214800B14A0B6811780022B8EEC77AE7EE667AD2
:10215800C4ED0A7A9A62C3E90B2229B1AB4B1B681A
:1021680033F400637FF4DCADA94B1B68990303F1DA
:10217800C281A84900220B461878012803F10C03F4
:1021880002F0E2850132182AF6D1C9E5057E002D54
:1021980000F05082022D02F02186032D41F0CA85FD
:1021A800827EC2EB421102EB8102D20092B2002B76
:1021B80002F07D84002A02F07A84974B974F1B68BF
:1021C800B2FBF3F20FFA82FB07EE90BA3C78A9F85B
:1021D80068B1B8EEE77AF7EE006A14F00102C6EECD
:1021E800877A0AD08E49D9ED5F6A91ED007A37EE89
:1021F800667A27EE277A89ED5B7A4FEA640818F049
:10220800010F0AD08649D9ED606A91ED017A37EE5F
:10221800667A27EE277A89ED5C7AA510E9070AD550
:102228007F49D9ED616A91ED027A37EE667A27EE39
:10223800277A89ED5D7AE410E3070AD57849D9ED64
:10224800626A91ED037A37EE667A67EE277AC9ED0E
:102258005E7A9AF80030072B03F0CD84BBF1000FAB
:1022680040F381823C7804F001024FEA6408A5102B
:10227800E41052B199ED5F7AD9ED5B7A684977EE4F
:10228800877AC9ED5F7AC1ED007A18F0010F0AD09C
:1022980099ED607AD9ED5C7A614977EE877AC9ED74
:1022A800607AC1ED017AED070AD599ED617AD9ED29
:1022B8005D7A5B4977EE877AC9ED617AC1ED027A7A
:1022C800E0070AD5D9ED627A99ED5E7A544977EE3E
:1022D800877AC9ED627AC1ED037A99F8203104252D
:1022E800AAE105F000552B46B0EE680A059330F0D8
:1022F800FDF94C4BC6ED028A03EB470C032F4FF058
:1023080003022CF8020C059B7FF443AC069E17468B
:1023180044E6D6EDB37AD4F8743277EE808A08F1C1
:10232800E000C6EDB38A9847012FF0EE408A04F02A
:102338001F80DBF8005005F000552B461FE497ED91
:10234800B37A394BD4F8742277EE007A5819C7ED6E
:10235800B37A904724356C2D87ED020A7FF4F3ADEC
:10236800069B14E6314A1278002A3FF481AD304AC0
:102378003048314912880968304C0894A0FB0202A1
:102388009209642090FBF2F01428A8BF1420CF040F
:102398002349D9F82421D1ED037A2568BDEEE77ADF
:1023A80009EB42016C8E17EE107A02F101024CBF64
:1023B800640824B2A1F82871824295F83010C9F84F
:1023C8002421A4BF0022C9F8242101297FF452AD99
:1023D80009EB4202B2F9282107EE102AB8EEC77AB3
:1023E80077EEC77AFDEEE77A17EE902A12B2002A46
:1023F800B8BF5242A24203F39B84114A4FF07E5168
:10240800116037E5A43D00204738002018720020ED
:1024180078810020BC4003088851002034520020F5
:10242800DC710020D45200203C4A0020CB5200200E
:10243800D07E0020D34D62104C4E0020AC75002099
:10244800B0190020B84F22783D78002B00F0E880C2
:1024580099F8513115F00101069103D0B349096883
:10246800C9F854116910C807099103D5AF494968DB
:10247800C9F858114FEAA50818F0010F03D0AB4965
:102488008968C9F85C114FEAE50B1BF0010F03D00E
:10249800A649C968C9F86011002B40F0AF80002A2E
:1024A8003FF428AD9AF80030282B01F03384059BBF
:1024B800069A93F82930002A01F0DE8399ED557ABF
:1024C800D4ED016AD4ED027A002B02F05886D4EDDF
:1024D800065A94ED073AD4ED033A94ED086A94ED60
:1024E800044AD4ED094A94ED055A904984ED067AD8
:1024F80065EEA77AC4ED075AE7EE267A84ED096AF5
:10250800E3EE237AE6EE447AE4EEC57AC4ED087A7F
:10251800C1ED007A099AD00742F1D58299ED567A31
:10252800D4ED0A6AD4ED0B7A002B02F01E86D4EDA6
:102538000F5A94ED103AD4ED0C3A94ED116A94EDDB
:102548000D4AD4ED124A94ED0E5A84ED0F7A65EED9
:10255800A77AC4ED105AE7EE267A84ED126AE3EE04
:10256800237AE6EE447AE4EEC57AC4ED117AC1ED39
:10257800017A18F0010F2AD099ED577AD4ED136A31
:10258800D4ED147A002B02F0E685D4ED185A94EDB8
:10259800193AD4ED153A94ED1A6A94ED164AD4ED29
:1025A8001B4A94ED175A84ED187A65EEA77AC4EDA4
:1025B800195AE7EE267A84ED1B6AE3EE237AE6EEF3
:1025C800447AE4EEC57AC4ED1A7AC1ED027A1BF0BA
:1025D800010F01F0698399ED587AD4ED1C6AD4EDA6
:1025E8001D7A002B42F0D68537EE667AE7EE276A29
:1025F800C4ED1C6AC1ED036A01F056BB4C4B186868
:1026080041F28833984242F243864A4B19680029BE
:1026180043F025859AF800302A2B02F085873D780B
:1026280005F0010306936B1009934FEAA5084FEADA
:10263800E50B34E7A9F868519AF80020072A00F05A
:102648008B80002B40F08F80002D40F0C6819AF8D7
:102658000070052F00F099860024DDE9071318683B
:102668001BF0FEFC9AF80030052B00F08786DFF897
:10267800E4B09BF8004014F0010400F0D4802E4B25
:102688001B78DA0600F1CF802C4B5B78002B00F02A
:10269800CA8099F894312A4D002B40F0C5802B78D8
:1026A800002B40F0C18099F89531002B40F0BC8098
:1026B800244B1B68DB0604F11980234ADFED237ADB
:1026C80092ED097AB0EEC77AB4EEE77AF1EE10FA35
:1026D80083F29C8692ED047AB0EEC77AB4EEE77A7C
:1026E800F1EE10FA83F2928692ED0E7AB0EEC77A86
:1026F800B4EEE77AF1EE10FA83F288860023C9F87F
:1027080098319AF80030202B40F09680D9F898310B
:102718000F4A9BF80040003318BF01235380012360
:1027280013801C4060E100BF34520020DC7100209F
:10273800203E002088510020FC7B002054360020D9
:10274800D87B00204C4E0020E053002000001644A7
:10275800D452002018550020A54AB9F86811918074
:10276800002B3FF471AF02231946DFF8DC82A14A3F
:10277800A14BDFF8A0B2A14D9FEDA19ADFEDA18A90
:102788009FEDA18A09960693464600240F46904677
:10279800BBEC010A2B6820EE090A2046F0EEC00ABD
:1027A800A8EC010AE6EC010A9847B4EEE80AF1EE53
:1027B80010FA8CBFF0EE687AF0EE407AF4EEC87A40
:1027C8009AF80030069AF1EE10FAB8BFF0EE487A9F
:1027D80002EB8400082BC0ED007A06D1BDEEC00ADA
:1027E800834810EE102A20F814200134BC42CFDDB3
:1027F800072B1F46099E08D1069BD3ED007A7C4B18
:10280800FDEEE77A17EE902ADA80059BDC7E002C35
:1028180040F0448599F82031002B3FF41AAF00238B
:1028280089F8203115E7794D9AF800300022202BDD
:10283800C9F8982100F0D680012B00F08B85052B74
:1028480000F032869BF800400023099304F001044D
:102858002B78002B7FD16E4B089A06931B6815685E
:102868006C4A95F8466092ED038ADF0440F14E8188
:10287800059B5F8A0CB9A9F8A8711821664823F04E
:10288800B5FC002801F0C581059B9B8AA3F57A73E6
:1028980003EBD373C3F34F03FA1A1F4492B2BFB2C8
:1028A80007EE902AA2F57A73B8EEE77A07EE903A27
:1028B800C7F5FA61F8EEE76AB4EEC87A07EE901A3F
:1028C800F1EE10FAB8EEE76A99F9AA1182F25C8281
:1028D80007EE907AF8EEE77AF4EEC87AF1EE10FA9D
:1028E80041F2EC81B9F8A831934204D84B4B1B7BD9
:1028F800002B02F07D8499F8C431002B42F07884D3
:10290800474BD9ED707A93ED007AC9ED6B7A77EE83
:10291800676A012989ED6D7AC9ED686AC9ED697A36
:1029280003F02B84079BC9F8B83100220123F0EE8D
:10293800466AC9F8BC2189F8AA313A4A9BF800408E
:1029480099ED6F7A002353609361D362089B04F07A
:1029580001041D68FFE0344D2E78002C40F0D88526
:10296800002E01F0E683B200304931482FF040FED6
:10297800304B1B788BB12E4FDFF8D0800024E0B2AB
:10298800D8F80030B7EC010A98472E780134B442E1
:10299800F5DB294B30461B6898479AF80030052B21
:1029A80000F0C5840024254B1B68190750D4244B1C
:1029B8001B7823B9234DAF78002F40F02B859AF868
:1029C8000030052B7FF402AA20F02CFE084A9AF862
:1029D8000030001BD080FFF7F9B9022DA8BF0225EF
:1029E8002946C2E6024B1A600023099330E700BF6C
:1029F800D4520020745400205054002074810020C8
:102A08006F12033B00C0F94400C0F9C4D87B002012
:102A18004C4E0020DC710020103600204C81002034
:102A280040360020E0530020116F0020187E00205F
:102A380088390020806C0020BC5E0020504E0020A9
:102A48007C730020FE7B00209C540020B45E002094
:102A58002749284BD1ED027AB3F90430264AF0EE23
:102A6800E76AB2EE0E7A82FB0302F4EEC76ADB175E
:102A7800C3EBA203F1EE10FA1BB235D51F4A128838
:102A8800520731D5B9F8CC219B1A9BB21AB212F170
:102A9800B30FBCBF03F5B4731AB2B32A93B203DD04
:102AA800A3F5B4739BB21AB21548007908B95B4212
:102AB8001AB2144B1B781B077FF579AF089B124895
:102AC8001B6893F8203013FB02F380FB03021A44BF
:102AD800DB17C3EB221307EE103AB8EEC77A77EE8E
:102AE800C77AC1ED027A62E7A9F8CC315FE700BF87
:102AF800DC71002080540020676666661C54002044
:102B08005C360020FC7B002089888888E64BE74AF1
:102B1800D3ED007AE64B92ED006A93ED005A059BDF
:102B2800D9ED726A9B8AE34A89ED6B6A05EE903AA1
:102B3800F8EEE77AF8EEE55A37EE887A75EE467AD7
:102B4800012337EE657A89ED696AC9ED687A89EDFE
:102B58006D5A89F8AA31C7EE267A2B8D5942B7EEFD
:102B6800007AF4EEC77AF1EE10FA06EE101A88BF72
:102B7800F0EE477AF5EEC07A9FEDCF7AD2ED044AAF
:102B8800B8EEC66AF1EE10FAB8BFF0EE477AF4EE86
:102B9800C64A07EE103AF1EE10FAC9ED6F7AB8EEB0
:102BA800477A00F15F83F4EEC74AF1EE10FA88BF66
:102BB800F0EE474AD2ED096ADFEDC05AB4EEE66A94
:102BC800F1EE10FA64EEA54A08DCB4EEE67AF1EE0E
:102BD80010FA8CBFB0EE666AB0EE476AB84B9FED4C
:102BE800B77A19786B8D26EE076A002940F035838D
:102BF800584205EE900A07EE103AF8EEE55AB8EE9C
:102C0800477AD2ED0E6AF4EEE56AF1EE10FA08D4CE
:102C1800F4EEC76AF1EE10FA8CBFF0EE475AF0EE08
:102C2800665AA84B9FEDA57A5B7865EE875A0BB973
:102C3800F1EE655A002E40F0B083B7EE004AA24B81
:102C48001B681A7C2AB15B7C632B40F2CB87C9EDE9
:102C58006F7A9E4B1B6803F40003002940F0CD8374
:102C68009B4D2E78002E02F087809A49DFED926AFC
:102C780091ED027AD1ED013A91ED035A26EE077AE9
:102C8800A4EEA37AA5EE857A24EE077AB4EEE67A66
:102C9800F1EE10FA8CBFB0EE665AB0EE475A8DEDE1
:102CA8000C7AD8BFB0EE667A012E00F0D480D1ED50
:102CB800066A91ED053AD1ED073A66EE266AE4EE2A
:102CC800836AE5EEA36A64EE266AF4EEC76AF1EE5B
:102CD80010FA00F33C83B4EEE65AF1EE10FA88BF1E
:102CE800B0EE665A022ECDED0D6A00F0B480D1ED3B
:102CF8000A6A91ED093AD1ED0B3A66EE266AE4EEDE
:102D0800836AE5EEA36A64EE266AF4EEC76AF1EE1A
:102D180010FA00F33F83B4EEE65AF1EE10FA88BFDA
:102D2800B0EE665A032ECDED0E6A00F09480D1ED18
:102D38000E6A91ED0D3AD1ED0F3A66EE266AE4EE91
:102D4800836AE5EEA36A64EE266AF4EEC76AF1EEDA
:102D580010FA00F3B283B4EEE65AF1EE10FA88BF27
:102D6800B0EE665A042ECDED0F6A74D0D1ED126A1A
:102D780091ED113AD1ED133A66EE266AE4EE836AD4
:102D8800E5EEA36A64EE266AF4EEC76AF1EE10FA7D
:102D980040F34B87B0EE667A052ECDED106A5AD017
:102DA800D1ED166A91ED153AD1ED173A66EE266A1D
:102DB800E4EE836AE5EEA36A64EE266AF4EEC76A77
:102DC800F1EE10FA01F3BE86B4EEE65AF1EE10FA0F
:102DD80088BFB0EE665A062ECDED116A3BD0D1ED14
:102DE8001A6A91ED193AD1ED1B3A66EE266AE4EEBD
:102DF800836AE5EEA36A64EE266AF4EEC76AF1EE2A
:102E080010FA01F38787B4EEE65AF1EE10FA88BF9C
:102E1800B0EE665A072ECDED126A1CD0D1ED1E6AAF
:102E280091ED1D3AD1ED1F3A26EE266AA4EE836A8B
:102E3800A5EEA36A24EE064AB4EEC47AF1EE10FABF
:102E480001F1D387B4EEC45AF1EE10FA88BFB0EEA0
:102E5800445A8DED134A77EE456A1F4A12787AB9BB
:102E68001E4A1F4992ED006AD2ED014A77EEC65A12
:102E7800A4EEA56A77EEC65A82ED006AC1ED005A43
:102E8800184ADFED0D4AD2ED005AF4EEE45AF1EE9D
:102E980010FA43DD144A92ED006A92ED013A77EE9A
:102EA800C63AB7EE004A21E0BC7E00203C3600203E
:102EB80040360020E0530020000000006F12833AE3
:102EC800C852002034380020B07500201036002089
:102ED800116F0020C4800020CA520020B07F00205B
:102EE800CC520020B87F0020A47F0020A3EE236AE4
:102EF80077EEC63A82ED006AE5EEA37AF4EEC47A7C
:102F0800F1EE10FA88BFF0EE447AF4EEE47AF1EECE
:102F180010FAB8BFF0EE647AC9ED6F7AB7EE006ABE
:102F2800D24AF4EEC66AF1EE10FAC2ED006A41F335
:102F3800F185FEB386EE267A012EDDED0C6A66EE8B
:102F4800876ACDED0C6A35D0DDED0D6A66EE876ACD
:102F5800022ECDED0D6A2DD0DDED0E6A66EE876A84
:102F6800032ECDED0E6A25D0DDED0F6A66EE876A79
:102F7800042ECDED0F6A1DD0DDED106A66EE876A6E
:102F8800052ECDED106A15D0DDED116A66EE876A63
:102F9800062ECDED116A0DD0DDED126A66EE876A58
:102FA800072ECDED126A05D0DDED136A26EE877A7D
:102FB8008DED137A002B00F08382F6EE007AC9EDCE
:102FC8006F7A002E00F03F81A94FAA4897ED005A6A
:102FD80099F9AA71069ADFF8BCE2A7490088D9EDE9
:102FE8006B5A1268D9ED6D6ADFF8ACC2C9789CF8E3
:102FF80000C099ED684AD9ED694A07EE107ABDEE2E
:10300800C56A059F00F40060B7F81480BEF9067021
:10301800069716EE10EABDEEE56A059002F48057B1
:1030280002F0100002F480020A92B8EEC77A16EE97
:10303800102AFDEEE66A002940F0B9848F49DDEDDB
:103048000C5A91ED006A27EE866AA7EE256AF0EE23
:10305800645AE4EE065ABDEEE56A10B1002F00F09E
:10306800898716EE103A9A4240F3E88506EE102A50
:10307800B8EEC66A824B012E83ED006A00F0DD804F
:1030880091ED046ADDED0D5A27EE866AA7EE256AF2
:10309800F0EE645AE4EE065ABDEEE56A16EE100A42
:1030A800824201F3E28516EE907AB842A8BF38460C
:1030B80006EE100AB8EEC66A022E83ED016A00F029
:1030C800BC8091ED086ADDED0E5A27EE866AA7EE00
:1030D800256AF0EE645AE4EE065ABDEEE56A16EE8D
:1030E800100A824201F32C8616EE907AB842A8BFE5
:1030F800384606EE100AB8EEC66A032E83ED026A59
:1031080000F09B8091ED0C6ADDED0F5A27EE866A80
:10311800A7EE256AF0EE645AE4EE065ABDEEE56ABB
:1031280016EE100A824201F3648616EE907AB842CF
:10313800A8BF384606EE100AB8EEC66A042E83ED1C
:10314800036A7AD091ED106ADDED105A27EE866A8F
:10315800A7EE256AF0EE645AE4EE065ABDEEE56A7B
:1031680016EE100A824201F3488616EE907AB842AB
:10317800A8BF384606EE100AB8EEC66A052E83EDDB
:10318800046A5AD091ED146ADDED115A27EE866A69
:10319800A7EE256AF0EE645AE4EE065ABDEEE56A3B
:1031A80016EE100A824202F34F8016EE907AB84269
:1031B800A8BF384606EE100AB8EEC66A062E83ED9A
:1031C800056A3AD091ED186ADDED125A27EE866A43
:1031D800A7EE256AF0EE645AE4EE065ABDEEE56AFB
:1031E80016EE100A824202F3338016EE907AB84245
:1031F800A8BF384606EE100AB8EEC66A072E83ED59
:10320800066A1AD091ED1C6ADDED135A67EE867ACC
:10321800E7EE257AE4EE274AFDEEE47A17EE901AF7
:103228008A4204DC16EE902A8A42A8BF0A4607EEB4
:10323800902AF8EEE77AC3ED077A24B9B20011496B
:103248000F482FF0D5F9104B1B78002B3FF4A5AB96
:10325800002E7FF490ABFFF79CBB9FED0C7ADFED5F
:103268000C5ACEE4F0EE464AA4E400BFC452002053
:10327800147E00201C540020F4710020C48000201B
:1032880088390020187E0020806C002000007A44D5
:1032980000007AC418730020B05E002019218B4802
:1032A80022F0A4FF00283FF4B5AA894B1B885906D1
:1032B8003FF5B0AA99F88C31A34242F0CA84854BF5
:1032C800D9ED647AD3ED016A069BDFED835A93ED5D
:1032D800025AD3ED004A9FED816A27EEC57A64EE63
:1032E800A77AA4EEA67AE5EE267AB4EEE57AF1EEB0
:1032F80010FA88BFB0EE657AB4EEC67AF1EE10FA2D
:10330800F4EEE57AB8BFB0EE467AF1EE10FA88BF6F
:10331800F0EE657AF4EEC67AF1EE10FAB8BFF0EE88
:10332800467A83ED007AC3ED027AFFF773BA20F08C
:1033380079F99AF800300999694A401A052B908062
:103348007FF430AB20F06EF90446FFF72CBBB0EEEB
:10335800667AC7E420F066F9624AD9F89C311268A7
:103368005F499BF800400990C31A9A1AC9F89C0152
:10337800CA808B8004F00104FFF76ABA20F052F982
:10338800574B001B5880FFF772B920F04BF90446E1
:10339800FFF763B9B0EE667AC4E4534B5A79002A52
:1033A8003FF44BAC514A1278002A3FF446AC1B78E4
:1033B800DFED4F3A07EE103A4E4BF8EE476A1B889E
:1033C80007EE102A05EE103AB8EEC77AB8EE455A5D
:1033D80026EE877AF7EE006A87EE054AB4EEE34AEE
:1033E800F1EE10FA88BFB0EE634AB4EEE64AF1EEA9
:1033F80010FAB8BFB0EE664A21E4002B7FF430AC77
:10340800069A126852023FF52BACF6EE007AC9ED27
:103418006F7A25E4384E3378013B0D2B2DD8DFE841
:1034280013F099068007330717072C002C000107B3
:103438006B07DF06C8060E00BC06B106A7062F4BB1
:103448002F4A5B681268C833934203D312F0BCFD5D
:10345800AF7890B1012F03F01C82032F0AD1294FB6
:10346800386808F0ECFF284B1B780022022B3A60E2
:1034780003F0CD820123AF783370012F00F063850C
:103488002B79012B02F08080022B7FF498AA3378E5
:10349800012B7FF494AA1D4B1B78002B7FF48FAA75
:1034A80013F0A6FFFFF78BBA20F0BCF89BF800409A
:1034B800099004F00104FFF7CBB9B0EE667A51E445
:1034C800069A126857023FF578AD7AE51036002063
:1034D8001C5400200000002000C0F94400C0F9C4BA
:1034E800D4520020885100204670002068750020C2
:1034F800713DAA3FE87200206E2E0020443600205D
:10350800203E0020783500207736002045380020FE
:10351800E94AEA4BD2ED017A93ED006A92ED005A3E
:10352800D3ED016A92ED027AE54A93ED024A5178A9
:10353800F5EEC07AF1EE10FAB5EEC05A26EE065A4C
:10354800F7EE007AA6EEA65AFFEE005A54BFF0EE48
:10355800654AF0EE674AF1EE10FAB5EEC07A54BF4C
:10356800B0EE657AB0EE677AF1EE10FA54BFF0EE7D
:10357800653AF0EE673A58BFF0EE675AF1EEC57A51
:103588000029B4EEE66A18BFF0EE635AF1EE10FABD
:10359800B4BFF0EE663AF0EE463AF4EEC43AF1EE15
:1035A80010FA9FEDC85A4ABF9FEDC77ADFEDC65A99
:1035B800F0EE447A27EE855A36EE263A9FEDC34A56
:1035C800C3EE053A48BFF0EE474AF4EEC43AF1EECE
:1035D80010FA0BD5B4EEE66ADFEDBB6AF1EE10FA2D
:1035E800D8BFB0EE667A88BFF0EE664A9FEDB85A4B
:1035F8009FEDB56ADFEDB76A77EEC57AF4EEC67A65
:10360800F1EE10FAB8BFF0EE467A67EEA67A002E11
:1036180000F08F859378DFEDB06AB04A99ED695A6A
:10362800AF4992ED004AD9ED683A06EE103AB8EE85
:10363800463AB3EE046A23EE263A35EE066AD1ED31
:10364800016A002B41F0F283D1ED022A91ED033A91
:10365800A44B67EE266AE4EEA26AE5EE836AB7EE4B
:10366800003AF5EEC06AF1EE10FA48BFF0EE446A8F
:1036780067EEA66AF4EEC36AF1EE10FA88BFF0EEC0
:10368800436AB0EE453AA3EEA63AB4EEC36AF1EE49
:1036980010FAF0EE436A9ABFB3EE043A76EEC36AC4
:1036A800F0EE446A012EC3ED006A3FF461A9D1ED42
:1036B800056AD1ED062A91ED073A67EE266AE4EE2F
:1036C800A26AE5EE836AB7EE003AF5EEC06AF1EE5B
:1036D80010FA48BFF0EE446A67EEA66AF4EEC36AD1
:1036E800F1EE10FA88BFF0EE436AB0EE453AA3EE69
:1036F800A63AB4EEC36AF1EE10FAF0EE436A9ABF46
:10370800B3EE043A76EEC36AF0EE446A022EC3EDD5
:10371800016A3FF42DA9D1ED096AD1ED0A2A91ED8C
:103728000B3A67EE266AE4EEA26AE5EE836AB7EE24
:10373800003AF5EEC06AF1EE10FA48BFF0EE446ABE
:1037480067EEA66AF4EEC36AF1EE10FA88BFF0EEEF
:10375800436AB0EE453AA3EEA63AB4EEC36AF1EE78
:1037680010FAF0EE436A9ABFB3EE043A76EEC36AF3
:10377800F0EE446A032EC3ED026A3FF4F9A8D1EDD6
:103788000D6AD1ED0E2A91ED0F3A67EE266AE4EE46
:10379800A26AE5EE836AB7EE003AF5EEC06AF1EE8A
:1037A80010FA48BFF0EE446A67EEA66AF4EEC36A00
:1037B800F1EE10FA88BFF0EE436AB0EE453AA3EE98
:1037C800A63AB4EEC36AF1EE10FAF0EE436A9ABF75
:1037D800B3EE043A76EEC36AF0EE446A042EC3ED03
:1037E800036A3FF4C5A8D1ED116AD1ED122A91ED13
:1037F800133A67EE266AE4EEA26AE5EE836AB7EE4C
:10380800003AF5EEC06AF1EE10FA48BFF0EE446AED
:1038180067EEA66AF4EEC36AF1EE10FA88BFF0EE1E
:10382800436AB0EE453AA3EEA63AB4EEC36AF1EEA7
:1038380010FAF0EE436A9ABFB3EE043A76EEC36A22
:10384800F0EE446A052EC3ED046A3FF491A8D1ED69
:10385800156AD1ED162A91ED173A67EE266AE4EE5D
:10386800A26AE5EE836AB7EE003AF5EEC06AF1EEB9
:1038780010FA48BFF0EE446A67EEA66AF4EEC36A2F
:10388800F1EE10FA88BFF0EE436AB0EE453AA3EEC7
:10389800A63AB4EEC36AF1EE10FAF0EE436A9ABFA4
:1038A800B3EE043A76EEC36AF0EE446A062EC3ED30
:1038B800056A3FF45DA817E0745400209C5400206A
:1038C80034380020F304B53F00000000D7B35D3F53
:1038D8009A99193E9696963F0AD723BC147E0020E3
:1038E800C480002088390020D1ED196AD1ED1A2A48
:1038F80091ED1B3A67EE266AE4EEA26AE5EE836A6A
:10390800B7EE003AF5EEC06AF1EE10FA48BFF0EEF5
:10391800446A67EEA66AF4EEC36AF1EE10FA88BF4D
:10392800F0EE436AB0EE453AA6EEA33AB4EEC63AD4
:10393800F1EE10FAF0EE436AA6BFB3EE043A76EE63
:10394800C36AF0EE446A072EC3ED066A3FF410A876
:10395800D1ED1D6AD1ED1E2A91ED1F3A27EE267A88
:10396800A4EEA27AA5EE837AB5EEC07AF1EE10FA4B
:1039780048BFB0EE447A67EE877AB7EE007AF4EE85
:10398800C77AF1EE10FA88BFF0EE477AA3EEA75A8D
:10399800B4EEC56AF1EE10FAF0EE457A03D8B3EE4C
:1039A800044A37EEC44A83ED074AFEF7E1BF002810
:1039B80000F0DA81002F01F02787E049BCF1000F01
:1039C80041F01686D1ED005A9DED0C5A67EEA55AC6
:1039D800B0EE646AE7EE055AA4EE256ABDEEC66A43
:1039E80016EE103A9E4502F3878316EE902A93420C
:1039F800A8BF134605EE903AF8EEE55AD04B012ED3
:103A0800C3ED005A3FF419ACD1ED045A9DED0D5A9F
:103A180067EEA55AB0EE646AE7EE055AA4EE256A89
:103A2800BDEEC66A16EE102A964502F3938316EE8B
:103A3800900A8242A8BF024605EE902AF8EEE55A9F
:103A4800022EC3ED015A3FF4F8ABD1ED085A9DEDB3
:103A58000E5A67EEA55AB0EE646AE7EE055AA4EE70
:103A6800256ABDEEC66A16EE102A964502F37484DE
:103A780016EE900A8242A8BF024605EE902AF8EE9A
:103A8800E55A032EC3ED025A3FF4D7ABD1ED0C5AD9
:103A98009DED0F5A67EEA55AB0EE646AE7EE055A37
:103AA800A4EE256ABDEEC66A16EE102A964502F304
:103AB800E38416EE900A8242A8BF024605EE902AD9
:103AC800F8EEE55A042EC3ED035A3FF4B6ABD1ED38
:103AD800105A9DED105A67EEA55AB0EE646AE7EEEB
:103AE800055AA4EE256ABDEEC66A16EE102A96455A
:103AF80002F32D8516EE900A8242A8BF024605EE13
:103B0800902AF8EEE55A052EC3ED045A3FF495AB1A
:103B1800D1ED145A9DED115A67EEA55AB0EE646ABC
:103B2800E7EE055AA4EE256ABDEEC66A16EE102A1F
:103B3800964502F3358516EE900A8242A8BF0246E2
:103B480006EE102AF8EEC65A062EC3ED055A3FF4C3
:103B580074ABD1ED185A9DED125A67EEA55AB0EE26
:103B6800646AE7EE055AA4EE256ABDEEC66A16EE4B
:103B7800102A964502F33D8516EE900A8242A8BFA8
:103B8800024606EE102AF8EEC65A072EC3ED065A6C
:103B98003FF453ABD1ED1C5A9DED135A67EEA57A4D
:103BA800E7EE057AE4EE274AFDEEE47A17EE902A6E
:103BB800964504DC16EE90EA9645A8BF964607EEB1
:103BC80090EAB8EEE76A83ED076AFFF736BB9142E1
:103BD800BEF6E7A901220799C4F8EC1284F8F0228E
:103BE800FEF7DFB907EE103ADFED566AB8EEC77A8E
:103BF800012A27EE267A01F02F83022A7FF427A8CC
:103C0800F4EEC77AF1EE10FA88BFF0EE477AFFF7C4
:103C18001EB84D4B1A7B002A7EF436AEDB88FA1AA2
:103C28001F4492B2BFB2FEF73BBEB4EEE65AF1EEC5
:103C380010FA88BFB0EE665AFFF7AEB816EE900AD3
:103C48008342A8BF034606EE103AFFF711BA0029CF
:103C580001F06C80002389F8513119F07BFD99F847
:103C6800202101232370002A01F01583374F99F88A
:103C780051313D78FEF7EEBB099AD10701F1DF8299
:103C8800012218F0010F00F0238799ED577A304987
:103C9800002A7EF473AC1BF0010F81ED027A03D089
:103CA80099ED587A81ED037A99F82031FEF7C9BC6D
:103CB800099AD20701F1BE82069AE2E7254B99EDEF
:103CC800707AD3ED006A89ED6B7A76EEC75A0129CE
:103CD800C9ED6D6AC9ED685A89ED697A01F01484F5
:103CE800079BC9F8B831002338EE677ABCEEC88A5A
:103CF800012218EE101A89ED6F7AF0EE466AA9F8DB
:103D0800A81189F8AA21144A93427EF616AE134ADE
:103D1800FEF721BF059B93F8283009EB830393ED49
:103D2800550A2EF0E3FC0E4AD4F898301080D38060
:103D3800FEF7BDBB0B4A5288FEF739BAC480002093
:103D4800883900200AD7233C4C81002034520020B7
:103D5800DC710020403600208FD00300E0530020A3
:103D6800D45200205C300020F549BCF1000F41F02E
:103D78009F82D1ED005A9DED0C5A67EEA55AB0EE20
:103D8800646AE7EE055AA4EE256ABDEEC66A16EE29
:103D9800103A9E4502F3F48016EE902A9342A8BF8B
:103DA800134605EE903AF8EEE55AE64B012EC3EDC0
:103DB800005A3FF442AAD1ED045A9DED0D5A67EE20
:103DC800A55AB0EE646AE7EE055AA4EE256ABDEE80
:103DD800C66A16EE102A964502F3148116EE900A6A
:103DE8008242A8BF024605EE902AF8EEE55A022E56
:103DF800C3ED015A3FF421AAD1ED085A9DED0E5AA0
:103E080067EEA55AB0EE646AE7EE055AA4EE256A95
:103E1800BDEEC66A16EE102A964502F3028116EE2A
:103E2800900A8242A8BF024605EE902AF8EEE55AAB
:103E3800032EC3ED025A3FF400AAD1ED0C5A9DEDB2
:103E48000F5A67EEA55AB0EE646AE7EE055AA4EE7B
:103E5800256ABDEEC66A16EE102A964502F37681EB
:103E680016EE900A8242A8BF024605EE902AF8EEA6
:103E7800E55A042EC3ED035A3FF4DFA9D1ED105AD9
:103E88009DED105A67EEA55AB0EE646AE7EE055A42
:103E9800A4EE256ABDEEC66A16EE102A964502F310
:103EA800848116EE900A8242A8BF024605EE902A47
:103EB800F8EEE55A052EC3ED045A3FF4BEA9D1ED3C
:103EC800145A9DED115A67EEA55AB0EE646AE7EEF2
:103ED800055AA4EE256ABDEEC66A16EE102A964566
:103EE80002F3428216EE900A8242A8BF024605EE0D
:103EF800902AF8EEE55A062EC3ED055A3FF49DA91F
:103F0800D1ED185A9DED125A67EEA55AB0EE646AC3
:103F1800E7EE055AA4EE256ABDEEC66A16EE102A2B
:103F2800964502F3108316EE900A8242A8BF024615
:103F380005EE902AF8EEE55A072EC3ED065A7FF4EF
:103F480029AEFFF77AB922F089FA7F4B82681B689D
:103F58009A423FF695AA33780C3B022B7EF62FAD9A
:103F68007A4D37702B78002B3EF429AD00232B7047
:103F7800FEF725BD002B01F0E98616EE103A9A42AD
:103F880002F3328016EE900A8342A8BF034606EE7B
:103F9800103AB8EEC66A6B4B012E83ED006A3FF407
:103FA8004CA991ED046ADDED0D5A27EE866AA7EE5D
:103FB800256AF0EE645AE4EE065ABDEEE56A16EE9E
:103FC800100A824202F3318016EE907AB842A8BFF6
:103FD800384606EE100AB8EEC66A022E83ED016A6C
:103FE8003FF42BA991ED086ADDED0E5A27EE866A9B
:103FF800A7EE256AF0EE645AE4EE065ABDEEE56ACD
:1040080016EE100A824202F3938016EE907AB842B6
:10401800A8BF384606EE100AB8EEC66A032E83ED2E
:10402800026A3FF40AA991ED0C6ADDED0F5A27EEFA
:10403800866AA7EE256AF0EE645AE4EE065ABDEEEB
:10404800E56A16EE100A824202F3CE8016EE907AE6
:10405800B842A8BF384606EE100AB8EEC66A042E63
:1040680083ED036A3FF4E9A891ED106ADDED105A7B
:1040780027EE866AA7EE256AF0EE645AE4EE065A41
:10408800BDEEE56A16EE100A824202F3698116EE69
:10409800907AB842A8BF384606EE100AB8EEC66A4B
:1040A800052E83ED046A3FF4C8A891ED146ADDED8E
:1040B800115A27EE866AA7EE256AF0EE645AE4EEF6
:1040C800065ABDEEE56A16EE100A824202F3D8815E
:1040D80016EE907AB842A8BF384606EE100AB8EE37
:1040E800C66A062E83ED056A3FF4A7A891ED186A03
:1040F800DDED125A27EE866AA7EE256AF0EE645ABD
:10410800E4EE065ABDEEE56A16EE100A824202F3A4
:104118002C8216EE907AB842A8BF384606EE100AEE
:10412800B8EEC66A072E83ED066A7FF46BA8FFF720
:1041380084B8074B1B78002B7EF42BACFEF72DBC04
:10414800C4800020883900207836002045380020B7
:10415800806C00209BF80030DF0702F16B821A2088
:104168002CF0D0F9B0B10C233370AF78FFF785B9D4
:104178001A202CF0C7F900287FF47FA90123337097
:10418800FFF77BB9012F02F04E820E231320337004
:1041980008F05AFBAF78FFF770B9012F01D122F070
:1041A80083F80D231320337008F04EFBAF78FFF728
:1041B80064B97C4B1B78002B01F0DA8716202CF0B1
:1041C800A1F9002841F0D487774B1B78002B41F0E8
:1041D800CF870923337012F08BF9AF78FFF74DB909
:1041E80016202CF08FF90028F5D0704B1B88002B77
:1041F800F1D16F4B45201F6811F088FF0E2011F098
:1042080085FF384612F08CF8079F384612F088F878
:10421800684A694B12681A6038460A23337014F0EA
:104228001BF9D8E711F0AAFE644B05200021009085
:10423800A3F10802CDE90111532012F0ABFE0028CA
:10424800A8D15F4BAF78186008233370FFF715B912
:1042580011F094FE5B4A0292A2F10C032D21019306
:104268000091A2F10A035021163A492012F092FE59
:1042780000288FD1524BAF7818604FF0FF325A6048
:1042880007233370FFF7F9B8DFF8348111F076FEB1
:104298004D4AD8F80430126864339342BFF47AAFB9
:1042A800402011F03FFE00287FF474AFD8F80030AA
:1042B800464940270EE0059111F028FF0599D8F8E6
:1042C80000300A680133013A013F0A60C8F800303B
:1042D80002F084833E4A13441B7E1846002BEAD121
:1042E80000234FF0FF32C8F800300423C8F8042038
:1042F8003370AF78FFF7C1B811F040FE12F02EF915
:1043080000283FF447AF11F05FFE00283FF442AFAA
:10431800284A294B12681A600A233370AF78FFF7CE
:10432800ACB8294B264A1B68536028490023136000
:1043380003220B603270FFF7A0B80021012DC4EDF5
:104348001E7AC4ED1D7AE1677DF47FACDFED218A2A
:10435800BCF1130F1BD0B8F1000F09D007EE908AFB
:10436800F8EEE77AF4EEE87AF1EE10FA00F1A884B4
:1043780007EE907AD4ED1A6AF8EEE77ABD4286EE37
:10438800A77A84ED087A7DF460ACFDF799BEB0EEAB
:10439800680ACDE905232EF0A9F9DDE9052300B265
:1043A800D9E700BF373800204538002030360020D4
:1043B8002C360020203600201C360020442B030811
:1043C8004436002036290308203E0020743500209A
:1043D800B828030800000000D84B1A46B2EC011AAE
:1043E80093ED036AD2ED005AD3ED097AD3ED021AA0
:1043F80093ED082AD3ED056A93ED077AD3ED0B2ADE
:1044080093ED0D3AD3ED0F3A93ED114AD3ED134ADC
:1044180093ED155AD3ED0A8A93ED0C0AD3ED0E0AE3
:10442800D3ED049A93ED069A65EEA55A26EE066A30
:1044380067EEA77AE1EE015A102FA1EEA16A93ED7B
:10444800101AD3ED121AE2EE027A66EEA66A93ED1E
:10445800142A27EE077A62EEA22A23EE033A63EEC5
:10446800A33A24EE044A64EEA44A25EE055AA0EEC7
:10447800003AE0EEA03AA1EE014AE1EEA14AA2EE2E
:10448800025AE9EEA96AA9EE097AE8EEA82AB1EE7D
:10449800C60AF1EEE58AB1EEE36AF1EEC35AF1EE2F
:1044A800E60AB1EEC71AF1EEC46AB1EEE47AF1EEAB
:1044B800E71AB1EEE22AF1EEC57A43ED1A5A03ED96
:1044C800196A43ED186A03ED177A43ED208A03ED64
:1044D8001F0A43ED1E0A03ED1D1A43ED1C1A03EDD6
:1044E8001B2A43ED167AD3ED175A93ED196AD3EDCB
:1044F8001B6A93ED1D7AD3ED1F7A93ED1E5A93ED47
:10450800163AD3ED183A93ED1A4AD3ED1C4A65EEE4
:10451800A55A26EE066A66EEA66A27EE077A67EEC1
:10452800A77AE3EE035AA3EEA36AE4EE046AA4EEC4
:10453800A47AE5EE057AB1EEE55AF1EEC65AB1EE87
:10454800E66AF1EEC76AB1EEE77A03ED155A43ED74
:10455800145A03ED136A43ED126A03ED117A02F05F
:10456800DB8094F8F9240132D2B284F8F924744B30
:104578007449B3F80080097807EE908A4B1C0F2B1A
:10458800F8EE674A01F31F860C2904EB810501F157
:1045980002009FED6D6A01F2648205F2145301F581
:1045A800A371D3ED007AF0EE465A04EB81010025A1
:1045B8002EE027EEA77AB4EEE65A27EE277A66EEC3
:1045C800A67AF1EE10FA36EEA64A00F10103A7EE3C
:1045D800A67A27D4D1ED017A26EEA67AB4EEE74A78
:1045E80067EE266A27EEA77AF1EE10FAE7EE276A59
:1045F80008D507EE103AB8EEC77A75EEA65AA6EEB9
:10460800876A354602300E2801F1080101F32C8231
:10461800D1ED006A37EEA75A26EEA67A002DC8D04B
:1046280027EE267AD1ED017A05EE100A67EEA76A21
:10463800B8EEC55A75EE875A66EEA76AA5EE076A00
:10464800431CD6E7D4F80425B4F808153F482DF0E4
:1046580001FA9AF80070102F02F0548094F8F93497
:10466800013384F8F934394BB4F8FC04D4F8102534
:104678001946B1EC016AD1ED007A77EEA77AF0EE2F
:10468800006AB0EE677AA6EE267A013803EBC0011D
:10469800D6EE267A08391032F6EE003A27EE237A5B
:1046A80067EEA37A83ED207AC3ED217A103391ED7A
:1046B800027A91ED036A53ED016A53ED027A52EDE5
:1046C800014A12ED025A37EE674A76EEC65A77EE7D
:1046D800277AE4EE845A0138A1F10801E5EE047A5C
:1046E80002F1080203F1080336EE267AE4EE877A2F
:1046F800E5EE475A67EEA37A25EEA37AC3ED1C7A56
:1047080083ED1D7AD3D1102F01F04E8294F8F9244D
:104718000F4E104B94F8F8140132A3FB0203D01A81
:1047280003EB50039B08C3EBC303D31A013984F886
:10473800F93484F8F814FDF700BB00BF584D002089
:10474800604E0020624E002000000000D84C00207F
:10475800B447002025499224B4F8FC14E248D4F860
:1047680000254FEA510E4FEA8E065FEAD10C06EBA0
:10477800000300EB810500F0A18006F1100103EBB6
:104788000C1C29440CF1100C1030103302F11007E6
:1047980005F1100656ED031A56ED042A10ED042A09
:1047A80010ED031A56ED015A56ED026A10ED026A31
:1047B80010ED015A11ED043A11ED034A53ED043A94
:1047C80053ED034A13ED027A53ED017A11ED020A13
:1047D80051ED010A32EE229A71EE218A00ED049A17
:1047E80040ED038A36EE269A75EE258A00ED029A88
:1047F80040ED018A33EE839A74EE848A03ED049ABD
:1048080043ED038A37EE009A77EEA08A03ED029A09
:1048180043ED018A74EE644A72EE622A17ED034A88
:1048280031EE612A73EE633A64EE628A17ED043A58
:1048380022EE041A63EE641AE2EE038A10339C45F2
:1048480023EE832AE3EE841A00F1100007F1100723
:10485800A4EE842A06F1100601F11001A2EE831AD3
:1048680046ED078A06ED081A41ED081A01ED072AF8
:1048780076EE666A30EE477A35EE656A70EEE77A6C
:1048880057ED055A17ED065A26EE253A65EEE63A33
:1048980025EE674A67EE054AE6EE053AA6EE853A42
:1048A800A7EE254AE7EEA54A06ED063A46ED053A93
:1048B80001ED064A41ED054A7FF46CAF1FFA8EF60A
:1048C8003146894816F03CFA31462846D4F8002586
:1048D80016F036FA9AF8007015E794F8FA34834E11
:1048E80094F8742302F1DE05C2F120025FFA82FC1B
:1048F80005EB43135FEA9C0E04EB830501F0848605
:104908004FEA0E1E0EF1100079497A4A284405F143
:10491800100313ED024A13ED035A13ED017A13ED58
:10492800046A51ED024A51ED035A51ED046A51ED02
:10493800017A64EE244A65EE255A66EE266A67EE29
:10494800277A1033984242ED024A42ED035A42ED6B
:10495800046A42ED017A01F1100102F11002D8D186
:104968006548614B754400EB0E0273441CF003016B
:104978001BD095ED007AD2ED007A67EE877A01298F
:10498800C3ED007A11D095ED017AD2ED017A67EE88
:10499800877A0229C3ED017A07D095ED027AD2ED24
:1049A800027A67EE877AC3ED027A94F87453002D81
:1049B80041F01E84102F01F0E78594F8F924A8E649
:1049C80094F8FA544D4A04EB4503D2ED007AB3F853
:1049D800803608EE903AB8EEE87A67EE277A17EE56
:1049E800900A2DF003FA0022454B06460F462DF09B
:1049F800C9FA08B9424F0026394630462DF0D6FA92
:104A080007EE900AB8EE680A67EEE70A3D4B374EA4
:104A1800E0EE000A05EBC50503EB850567EE807A35
:104A28002846C7EEA00A3168D5F82080D5ED058A5A
:104A380095ED069A95ED078A16F0FCFE9AF8007037
:104A4800C5ED058A102F85ED069A85ED078AC5F80C
:104A5800208001F0788694F8FA342B4A94F8F914F7
:104A68000133A2FB0302520802EB42029B1ADBB29B
:104A7800013184F8FA3484F8F91431E70021012D62
:104A8800C4ED237AC4ED227AC4F890107DF412A9FB
:104A980007EE907AD4ED1B6AF8EEE77ABD4286EE0F
:104AA800A77A84ED097A7DF405A9FDF720BBB9F84A
:104AB8006821013A12B2002AA9F8682140F3A181BD
:104AC800124FFDF7CFBB18F0010F7DF455AD012251
:104AD8001BF0010F3FF4E8A899ED587A0C49002A19
:104AE8003FF4E0A8FDF779BDD84C0020B44700207A
:104AF800744E0020E84C0020644E0020544E0020E4
:104B080000405A403C4A0020ABAAAAAA34520020CE
:104B1800DC710020002B00F0AC83B1EE455AB4EEF6
:104B2800E75AF1EE10FA00F3A083F7EE006A36EECA
:104B3800C77AF4EEC77AF1EE10FA88BFF0EE477A3A
:104B4800FEF73DBAB0EE667AFEF745B9D4EDBE8AF7
:104B5800D4EDBF6A94EDC70AD4EDC24A94EDC87A81
:104B680094EDC35AD4EDC67AD4EDC55A94EDC46A0F
:104B780094F87453A74B68EEA66A04EB8502A4EE7A
:104B8800A60A00210F2FA5EE267A84F8F412B3F9AD
:104B9800040082EDDE0A67EEC07AA5EEC07AE6EE82
:104BA800267A84EDC77AC4EDC87A01F09286D4EDEE
:104BB800C04A94EDC15A94EDD04A94EDD97AD4ED17
:104BC800CB0A94EDD41AD4EDD15AD4EDD53AD4ED1C
:104BD800DA6AD4EDCC1A94EDCF6AD4EDD87A94ED94
:104BE800CE2AD4EDCD2A94EDD73A988068EEA44A1F
:104BF80028EE855AA0EEA44A05F1600204EB85016F
:104C0800A5EE017A0C230135E5EE236A04EB820256
:104C180005F01F05E1EEA45A84F8F834002326EEC7
:104C2800446A67EEC77AD4EDD63A81EDFE4AE2EEE1
:104C3800445A84F874539AF8007082EDBE7AA2EE52
:104C4800A46AC4F8FC32C4F80033E7EE436AC4F837
:104C58000433E5EE237AC4EDD05A84EDD16AC4ED6D
:104C6800D96AC4EDDA7AFDF7DDB906EE102AFEF747
:104C780021BA01297FF76AAB07EE10EAB8EEC77AC6
:104C8800C7EE876AF1EEE68AFFF762BBBCF1010F57
:104C98007FF7FEAE07EE101AB8EEC77AC7EE876A3E
:104CA800F1EEE67AB8F1000F3FF4F2AE07EE108AA3
:104CB800B8EEC77AF4EEC77AF1EE10FA7FF7E8AEED
:104CC800928BD88042F2107303FB02F29AF80070BC
:104CD8003368B2FBF3F3C4F8B030FDF72EB8BCF17B
:104CE800010F7DF71DAA07EE101AB8EEC77AC7EEB6
:104CF800876AF1EEE67AB8F1000F3DF411AA07EEE3
:104D0800108AB8EEC77AB4EEE77AF1EE10FA7DF5BC
:104D180007AAD5E7B0EE667AFEF77CB818F001026C
:104D28003FF4D6AE99ED577AFEF7B5BF3A4F012159
:104D38003D7889F85111002B7DF48CABFDF7D0B884
:104D480006EE102AFEF7D7B9D9F80001530038B19A
:104D58009D1801EB850540786D788542BCF4E0AF7D
:104D6800134401EB83030022C9F80031A9F8042198
:104D7800C9F80821FCF7D4BFDFED286AB0EE665AFF
:104D8800B0EE667AFEF769B8254A264BD2ED007A6E
:104D980099ED6C6A1B78C9ED6B7A89ED6D6A002B09
:104DA80000F05E8276EE675A0131C9ED685AC9EDA6
:104DB800697A00F0B483079BC9F8B831002337EE4D
:104DC800487ABCEEC88AFF2218EE101A89ED6F7A6D
:104DD800A9F8A81189F8AA21FEF795BF124A1288E6
:104DE80002F57A7292B2FDF7E2B9B0EE447AFEF7B4
:104DF80030B806EE102AFEF79FB906EE102AFEF725
:104E0800BBB90025FDF718BC079AC4F8EC22FDF7DA
:104E1800C8B800BFD452002034520020000000005F
:104E28003C360020B05E0020D07E002091ED022AA2
:104E3800D1ED032AEC4B67EE266AE2EE246AE2EE35
:104E4800A56AF7EE002AF5EEC06AF1EE10FA48BF3F
:104E580066EE836A67EEA66AF4EEE26AF1EE10FA8D
:104E680088BFF0EE626AF0EE452AE3EEA62AB4EEB9
:104E7800E26AF1EE10FAF0EE626A9ABFF3EE042AE3
:104E880076EEE26AF0EE446A012EC3ED006A3DF464
:104E98006FADD1ED056A91ED062AD1ED072A67EECF
:104EA800266AE2EE246AE2EEA56AF7EE002AF5EE3B
:104EB800C06AF1EE10FA48BF66EE836A67EEA66A2A
:104EC800F4EEE26AF1EE10FA88BFF0EE626AF0EEF4
:104ED800452AE3EEA62AB4EEE26AF1EE10FAF0EE05
:104EE800626A9ABFF3EE042A76EEE26AF0EE446A4A
:104EF800022EC3ED016A3DF43BADD1ED096A91ED97
:104F08000A2AD1ED0B2A67EE266AE4EE826AE5EEFC
:104F1800A26AF7EE002AF5EEC06AF1EE10FA48BF71
:104F280066EE836A66EEA76AF4EEE26AF1EE10FABC
:104F380088BFF0EE626AF0EE452AE3EEA62AF4EEA8
:104F4800C62AF1EE10FAF0EE626AA6BFF3EE042A62
:104F580076EEE26AF0EE446A032EC3ED026A3DF48F
:104F680007ADD1ED0D6A91ED0E2AD1ED0F2A67EE4E
:104F7800266AE4EE826AE2EEA56AF7EE002AF5EE0A
:104F8800C06AF1EE10FA48BF66EE836A67EEA66A59
:104F9800F4EEE26AF1EE10FA88BFF0EE626AF0EE23
:104FA800452AE3EEA62AF4EEC62AF1EE10FAF0EE50
:104FB800626AA6BFF3EE042A76EEE26AF0EE446A6D
:104FC800042EC3ED036A3DF4D3ACD1ED116A91ED23
:104FD800122AD1ED132A67EE266AE4EE826AE5EE1C
:104FE800A26AF7EE002AF5EEC06AF1EE10FA48BFA1
:104FF80066EE836A67EEA66AF4EEE26AF1EE10FAEC
:1050080088BFF0EE626AF0EE452AE3EEA62AB4EE17
:10501800E26AF1EE10FAF0EE626A9ABFF3EE042A41
:1050280076EEE26AF0EE446A052EC3ED046A3DF4BA
:105038009FACD1ED156A91ED162AD1ED172A67EECE
:10504800266AE4EE826AE5EEA26AF7EE002AF5EE39
:10505800C06AF1EE10FA48BF66EE836A67EEA66A88
:10506800F4EEE26AF1EE10FA88BFF0EE626AF0EE52
:10507800452AE3EEA62AB4EEE26AF1EE10FAF0EE63
:10508800626A9ABFF3EE042A76EEE26AF0EE446AA8
:10509800062EC3ED056A3DF46BACD1ED196A91EDAE
:1050A8001A2AD1ED1B2A67EE266AE4EE826AE5EE3B
:1050B800A26AF7EE002AF5EEC06AF1EE10FA48BFD0
:1050C80066EE836A67EEA66AF4EEE26AF1EE10FA1B
:1050D80088BFF0EE626AF0EE452AE3EEA62AB4EE47
:1050E800E26AF1EE10FAF0EE626A9ABFF3EE042A71
:1050F80076EEE26AF0EE446A072EC3ED066A3DF4E6
:1051080037AC91ED1D2AD1ED1E2AD1ED1F6A27EE8D
:10511800027AA4EEA27AA5EEA67AB5EEC07AF1EEEE
:1051280010FA48BF27EE037A27EE877AF7EE007A5F
:10513800B4EEE77AF1EE10FA88BFB0EE677AF0EED7
:10514800457AE3EE877AB4EEE76AF1EE10FA3EF6B6
:105158002AACFEF724BC37EE667AE7EE276AC4ED80
:10516800136AC1ED026AFDF732BA37EE667AE7EEE6
:10517800276AC4ED0A6AC1ED016AFDF7FAB937EE8C
:10518800667A1A49E7EE276AC4ED016AC1ED006A3A
:10519800FDF7C0B9D4ED215AD4ED223A94ED1E3A68
:1051A80094ED236A94ED1F4A94ED245AD4ED204AD5
:1051B80084ED217A65EEA77AC4ED225AE7EE267AC5
:1051C80084ED246AE3EE237AE4EE467AE4EEC57AC7
:1051D800C4ED237AC1ED037AFEF766BD00283CF4DE
:1051E80077AEFEF737BD00BF88390020DC7100209C
:1051F800DD4ADE4BD2ED007A99ED6C7A1B78C9ED69
:105208006B7A89ED6D7A002B00F0848137EE676A3E
:10521800481C89ED686AC9ED697A00F00E85079B1C
:10522800C9F8B8310022FF23C9F8BC2189F8AA318E
:10523800FDF783BB99ED567ACD49FCF76DBE99ED24
:10524800567ACB49FDF76CB906EE102AFDF7B4BFC4
:1052580006EE102AFDF7D0BF67EE877AFDF7F7BC98
:1052680077EEC65AF0EE467A9EE5F0EE457AFDF7FF
:10527800A6BE069A126850023FF54FACF6EE006AD9
:10528800F4EEE67AF1EE10FA3FF747ACFDF799BE77
:105298000021FDF7BFB9B74B1D7805F00103069350
:1052A8006B1009934FEAA5084FEAE50BFDF7FAB82A
:1052B80091ED005ADDED0C3A27EE855AB0EE646A9E
:1052C800A7EE235AA4EE056AF4EEC65AF1EE10FAD8
:1052D800B0EE465A00F37E86BDEEC66A16EE103A68
:1052E8009E45C8BF05EE10EA40F37586B8EEC55A6C
:1052F800A14B012E83ED005A3DF49FAF91ED045A66
:10530800DDED0D3A27EE855AB0EE646AA7EE235A12
:10531800A4EE056AF4EEC65AF1EE10FAB0EE465A5B
:1053280000F36686BDEEC66A16EE102A9645C8BF1B
:1053380005EE10EA40F35D86B8EEC55A022E83EDFD
:10534800015A3DF47AAF91ED085ADDED0E3A27EE99
:10535800855AB0EE646AA7EE235AA4EE056AF4EE05
:10536800C65AF1EE10FAB0EE465A00F36E86BDEE5C
:10537800C66A16EE102A9645C8BF05EE10EA40F335
:105388006586B8EEC55A032E83ED025A3DF455AF33
:1053980091ED0C5ADDED0F3A27EE855AB0EE646AAE
:1053A800A7EE235AA4EE056AF4EEC65AF1EE10FAF7
:1053B800B0EE465A00F3C086BDEEC66A16EE102A55
:1053C8009645C8BF05EE10EA40F3B786B8EEC55A51
:1053D800042E83ED035A3DF430AF91ED105ADDED04
:1053E800103A27EE855AB0EE646AA7EE235AA4EE67
:1053F800056AF4EEC65AF1EE10FAB0EE465A00F31A
:10540800CA86BDEEC66A16EE102A9645C8BF05EED6
:1054180010EA40F3C186B8EEC55A052E83ED045A4A
:105428003DF40BAF91ED145ADDED113A27EE855A94
:10543800B0EE646AA7EE235AA4EE056AF4EEC65AE3
:10544800F1EE10FAB0EE465A00F3A587BDEEC66A33
:1054580016EE102A9645C8BF05EE10EA40F39C8761
:10546800B8EEC55A062E83ED055A3DF4E6AE91ED29
:10547800185ADDED123A27EE855AB0EE646AA7EEA7
:10548800235AA4EE056AF4EEC65AF1EE10FAB0EE0D
:10549800465A01F30180BDEEC66A16EE102A9645FB
:1054A800C8BF05EE10EA40F3F887B8EEC55A072ED4
:1054B80083ED065A3DF4C1AE91ED1C5ADDED133A69
:1054C80067EE857AE7EE237AE4EE274AF4EEE45AAB
:1054D800F1EE10FA08DCFDEEE47A17EE902A964514
:1054E8003EF76DAB17EE90EA16EE902A9645A8BFE8
:1054F8009646FEF764BB214B1B78032B7CF439AE30
:1055080007F086F9FCF70CBCD9F8B831079AD31A1A
:10551800FEF7EABB37EEC76AF0EE477A78E6D9F8C5
:10552800B831079AD31A4AE4154B16481B883D78B8
:105538000380D4F898308380059BD4F8A070C1808C
:10554800E907478093F8293040F1628599ED557A4B
:10555800002A40F099876A1009924FEAA5084FEA95
:10556800E50BFCF7D1BC00BF3C360020B05E002044
:10557800DC7100203452002088390020447000205B
:10558800D07E0020D45200209BF800303778DD0709
:1055980004D42AF0D9FC002840F04B85DFF8648257
:1055A800D9F8D021D8F800309A4200F24985012F65
:1055B8003DF405AA904D2B78002B3DF400AA0B2F43
:1055C8000ED80123BB4040F6030213EA02097EF419
:1055D800CDAC13F4C06F03D0093F012F41F2D08145
:1055E800864BD8F800205A600B233370FEF7BEBCF8
:1055F80091ED005ADDED0C3A27EE855AB0EE646A5B
:10560800A7EE235AA4EE056AF4EEC65AF1EE10FA94
:10561800B0EE465A00F38285BDEEC66A16EE103A21
:105628009E45C8BF05EE10EA40F37985B8EEC55A25
:10563800734B012E83ED005A3DF4FFAD91ED045AF2
:10564800DDED0D3A27EE855AB0EE646AA7EE235ACF
:10565800A4EE056AF4EEC65AF1EE10FAB0EE465A18
:1056680000F37C85BDEEC66A16EE102A9645C8BFC3
:1056780005EE10EA40F37385B8EEC55A022E83EDA5
:10568800015A3DF4DAAD91ED085ADDED0E3A27EEF8
:10569800855AB0EE646AA7EE235AA4EE056AF4EEC2
:1056A800C65AF1EE10FAB0EE465A00F34B86BDEE3C
:1056B800C66A16EE102A9645C8BF05EE10EA40F3F2
:1056C8004286B8EEC55A032E83ED025A3DF4B5ADB5
:1056D80091ED0C5ADDED0F3A27EE855AB0EE646A6B
:1056E800A7EE235AA4EE056AF4EEC65AF1EE10FAB4
:1056F800B0EE465A00F35986BDEEC66A16EE102A79
:105708009645C8BF05EE10EA40F35086B8EEC55A74
:10571800042E83ED035A3DF490AD91ED105ADDED62
:10572800103A27EE855AB0EE646AA7EE235AA4EE23
:10573800056AF4EEC65AF1EE10FAB0EE465A00F3D6
:105748000A87BDEEC66A16EE102A9645C8BF05EE52
:1057580010EA40F30187B8EEC55A052E83ED045AC6
:105768003DF46BAD91ED145ADDED113A27EE855AF3
:10577800B0EE646AA7EE235AA4EE056AF4EEC65AA0
:10578800F1EE10FA00F30F87BDEEC66A16EE102A86
:105798009645C8BF724640F3078706EE102AB8EE52
:1057A800C65A062E83ED055A3DF447AD91ED185AB9
:1057B800DDED123A27EE855AB0EE646AA7EE235A59
:1057C800A4EE056AF4EEC65AF1EE10FA00F3148757
:1057D800BDEEC66A16EE102A9645C8BF724640F35B
:1057E8000C8706EE102AB8EEC65A072E83ED065A25
:1057F8007FF462AEFDF721BD453800204436002015
:1058080088390020203E0020002B00F05C85ED49FF
:10581800DDED0C3A91ED005A27EE855AB0EE646A38
:10582800A7EE235AA4EE056AB0EE465ABCF1000F63
:1058380000F04687F4EEC65AF1EE10FA40F34087BE
:10584800734616EE902A9342A8BF134605EE103A07
:10585800B8EEC55ADC4B012E83ED005A3DF4EDAC91
:1058680091ED045ADDED0D3A27EE855AB0EE646AE3
:10587800A7EE235AA4EE056AB0EE465ABCF1000F13
:1058880000F02987F4EEC65AF1EE10FA40F32387A8
:10589800724616EE900A8242A8BF024605EE102A0A
:1058A800B8EEC55A022E83ED015A3DF4C6AC91ED0F
:1058B800085ADDED0E3A27EE855AB0EE646AA7EE77
:1058C800235AA4EE056AB0EE465ABCF1000F00F068
:1058D8004487F4EEC65AF1EE10FA40F33E8772465A
:1058E80016EE900A8242A8BF024606EE102AB8EECB
:1058F800C65A032E83ED025A3DF49FAC91ED0C5A23
:10590800DDED0F3A27EE855AB0EE646AA7EE235A0A
:10591800A4EE056AB0EE465ABCF1000F00F04387CA
:10592800F4EEC65AF1EE10FA40F33D87724616EED1
:10593800900A8242A8BF024606EE102AB8EEC65A5E
:10594800042E83ED035A3DF478AC91ED105ADDED49
:10595800103A27EE855AB0EE646AA7EE235AA4EEF1
:10596800056AB0EE465ABCF1000F00F01287F4EE5B
:10597800C65AF1EE10FA40F30C87724616EE900AFA
:105988008242A8BF024606EE102AB8EEC65A052E75
:1059980083ED045A3DF451AC91ED145ADDED113A02
:1059A80027EE855AB0EE646AA7EE235AA4EE056A7C
:1059B800B0EE465ABCF1000F00F0E186F4EEC65A8C
:1059C800F1EE10FA40F3DB86724616EE900A824238
:1059D800A8BF024606EE102AB8EEC65A062E83ED78
:1059E800055A3DF42AAC91ED185ADDED123A27EE2E
:1059F800855AB0EE646AA7EE235AA4EE056AB0EEA3
:105A0800465ABCF1000F00F0D886F4EEC65AF1EE03
:105A180010FA40F3D286724616EE900A8242A8BF68
:105A2800024606EE102AB8EEC65A072E83ED065A2D
:105A38003DF403AC91ED1C5ADDED133A67EE857A1F
:105A4800E7EE237AE4EE274ABCF1000F3EF4ACA857
:105A5800F4EEE45AF1EE10FA7EF7A6A87246FEF7C5
:105A6800A9B8F0EE465A002503F5A27104EB8101AE
:105A78000CE026EEA77A07EE903AF8EEE77A75EE94
:105A8800875AA7EE876A35460F2B18DCD1ED017AC5
:105A9800B1EC017A013337EE075A67EEA76A002D99
:105AA800E7D167EE076AF4EEC57AF1EE10FA26EE52
:105AB800877A67EEA76AE7DDA7EEA67ADBE7F5EE59
:105AC800C05AF1EE10FA40F37E83C6EE257A3F4BBA
