:020000040800F2
:1000000000200010059E02086D9E0208755600082B
:100010006D9E02086D9E02086D9E020800000000A1
:100020000000000000000000000000006D9E0208BB
:100030006D9E0208000000006D9E0208713B0008E2
:100040006D9E02086D9E02086D9E02086D9E02085C
:100050006D9E02086D9E02088D680008B96900084F
:100060007D690008416900080569000849FF010829
:1000700039FF010829FF010819FF010809FF0108DC
:10008000F5FE0108E1FE01086D9E02086D9E020862
:100090006D9E02086D9E02086D9E0208C9680008E8
:1000A000691D0008752000089D1C0008F12100084A
:1000B000B91F0008FD1E0008351E00086D9E0208CD
:1000C0006D9E02086D9E02086D9E02086D9E0208DC
:1000D0006D9E0208C93C00083D3C0008B13B000889
:1000E000516800086D9E02086D9E02086D9E020810
:1000F0006D9E02086D9E02086D9E02086D9E0208AC
:100100000000000000000000000000006D9E0208DA
:100110006D9E02086D9E02086D9E02086D9E02088B
:10012000CDFE0108B9FE0108A5FE010891FE0108F7
:100130007DFE01086D9E0208000000000000000026
:100140006D9E02086D9E02086D9E02080000000070
:10015000000000000000000000000000000000009F
:1001600000000000000000006D9E02086D9E020865
:100170006D9E02080000000000000000000000006A
:08018000000000006D9E020862
:10018800704700BF70B50C4C23689BB15A68821A3F
:10019800002A0FDB0546002603E05A68AA1A002A3F
:1001A80008DB99681E731A6821601846904723680F
:1001B800002BF2D170BD00BFE40A0020436A8269B7
:1001C800D154436A0169426C01338B4228BF002332
:1001D80043624AB3EFF31183502282F31288426CD0
:1001E8001168C90703D5DBB283F3118870475168DA
:1001F80089B270B479B9D0E90954A5421AD0866990
:100208002644D660A4B21CD92C1BA4B254608562C3
:10021800002180F86010116841F00101DBB2116023
:1002280083F3118870BC7047C26D136843F0800374
:1002380013607047012280F86020DBB283F31188D5
:10024800F0E705692C1BA4B254608162E0E700BFA7
:10025800034610B4046CD968406954B11A6D8C1AFD
:10026800013A005D5DF8044B08BF0A46C0B21A6542
:1002780070471A6A805C01328A4228BF2246C0B29F
:100288001A625DF8044B7047436C13B190F8600034
:100298007047D0E90903181AB0FA80F0400970478E
:1002A800D0E909120369914238BFC9188A1A416C0A
:1002B800013B21B1496812FA81F29A4201D2981A97
:1002C80070470020704700BF036C4BB15B68026D3C
:1002D8009BB29A4291BF981AC068801AC01870479A
:1002E800D0E907239A422FBFD01AC0688018C01AD5
:1002F80070470B4B30B503F1140493F900205D7877
:10030800072AC8BF143A811804330D7313F8025C26
:10031800855413F8012C0A769C42EED130BD00BFFB
:100328001CA2020803682DE9F0415D6A1DB12B4645
:10033800BDE8F0411847002A174611DD04460E466D
:100348000F4400E023689B68204698470028F9D0AE
:10035800236816F8011B1B6820469847BE42F1D156
:10036800BDE8F08103681B69184700BF002070478B
:100378009FED010A704700BF00000000704700BFF2
:10038800704700BF704700BF704700BF012070472B
:1003980000207047704700BF00207047704700BFBB
:1003A80000232322027043708370C370704700BF1C
:1003B800034B00EB400003EBC003587C704700BFC1
:1003C800703F0020704700BF70B48E0005460424BB
:1003D800130B03EB430318331201013C2B6092B259
:1003E8003544F5D10B01C218C450062042F821400B
:1003F80070BC704770B410238E00044612F4004F8E
:1004080014BF0E2507255200013B256092B23444E3
:10041800F4D18A0184188350122044F8213070BC2A
:10042800704700BF2E4B1B68DB0427D5B5EE400A8A
:10043800F1EE10FA3FD0DFED2B7AB4EEE70AF1EED9
:1004480010FA38D4DFED287ABDEEC07AB4EEE70AA8
:10045800F1EE10FA17EE103A30D8A3F13002234823
:100468006FF4F97303FB02F380FB0320C218D8175B
:10047800C0EB622000F2DB5080B27047DFED197AE2
:10048800B4EEE70AF1EE10FA12DBFDEEC07A40F2A4
:10049800E73217EE903A1648303B02FB03F380FB35
:1004A8000312D817C0EB622000F2E93080B270471F
:1004B8004FF47A70704740F2DC507047A3F58362BE
:1004C8000A4840F2F31303FB02F380FB0320C2182F
:1004D800D817C0EB622000F2DD5080B2704700BF31
:1004E800F05E00200000404200E082442105348391
:1004F800DB9B91412E4B1B68B0F57A7F03F4805348
:1005080005DBB0F5FA6F0BDD9FED2A0A7047DFEDCA
:100518002A7A9FED2A0A002B08BFB0EE670A7047B7
:10052800BBB9B0F57A7F18D06FF47A7340F2CF7206
:100538001844234B02FB00F0A3FB0023C01A03EB73
:1005480050035B0A30339BB200EE103AB8EE400A13
:10055800704740F2DC53984202D19FED170A70476A
:1005680040F2DB53984211D9A0F2DD5040F2E73354
:1005780003FB00F340F2F31293FBF2F303F58363FA
:100588009BB200EE103AB8EE400A7047A0F57A70B8
:10059800A3F6C21303FB00F340F2F31293FBF2F34A
:1005A80003F217439BB200EE103AB8EE400A7047C8
:1005B800F05E002000E0FF440000000000E08244FC
:1005C800410A68062DE9F041604C636846F2A712BB
:1005D800C31A93422DED028B03D8BDEC028BBDE804
:1005E800F0815B4B60601B6813F004032DD1184643
:1005F800584A217D127812F001021AD001BB012558
:10060800C4E906010A46084625752BB194F820303E
:10061800012B9CBF504B1860504B1B780E2BDCD124
:10062800BDEC028B4E4B1E2158809A801980BDE884
:10063800F08129B1D4E906512275401B4A42E4E70A
:10064800D4E90612401A5242DFE7DFF83481454EFA
:1006580098F806303788A568013BB5FBF3F5002FFD
:1006680039D0414A9FED410A1368002B1946B8BF9B
:10067800D91DA3EBE1031D44002D2B46B8BFEB1D8C
:10068800DB1007EE903AF8EEE77A156027EE800A5D
:100698001BF0B8FFDFED367A20EE270A1BF0F8FFD3
:1006A800F7EE007A77EEC07A9FED320A236967EE9B
:1006B800807A9D4208BF0022FDEEE77A0EBF1346FE
:1006C80007F1FF370023C4ED037A0EBF328037806D
:1006D800256118468CE707EE905A9FED240A264DAF
:1006E800F8EE677AB7EE008A27EE800A1BF08AFFD9
:1006F800DFED1F7A20EE270A1BF0CAFFDFED1D7A17
:1007080038EE400A20EE270A29F0B2FCB8F8083083
:10071800DFED1A6A07EE103AE368C01AB8EEC77A36
:1007280007EE900AA7EE668AB8EEE70AD5ED0D7ACD
:10073800F8EEE77A20EE080A67EEA67AA7EE270A0F
:1007480029F096FC0123686352E700BFE40A002001
:10075800D8270020BA60002070340020783D00209F
:100768007C3D0020921200200000002008942537CC
:1007780041D3423ED048874A442C00206F12833A26
:10078800342C0020544B1B685B0700D470472DE9BC
:10079800F04F524D524C2A782379372A08BF514AD4
:1007A80083B008BF1380042B78D8DFE803F06F65A7
:1007B8005D5103004C4FFB6A3846984700284BD0E0
:1007C8004A4E3B6B06F1240106F128009847484B36
:1007D800D6F808809879D6E90BA2D6E9093B0AF140
:1007E8000109511C814508BF4FF000090329C7F8CA
:1007F8003CB0BB635FD03F48316396F8341040F893
:1008080022B000295FD1584606EB8A0A06EB890216
:10081800397CCAF83800D2F838C02A78C6F82C9043
:1008280000290CBF05210221372A08BF2D4A217152
:10083800A8EB0C08404408BF53807B8AB06004BF13
:10084800A2F804B0D080002B42D103B0BDE8F08FED
:100858002548836A984748BB4FF47A73264A12683A
:10086800136103B0BDE8F08F1F4D6B6A28469847A7
:100878000322AB8A2271E6E71B48036A98470028DF
:10088800EAD0022323714FF47A73E7E71648C36965
:1008980098470028E0D001232371DDE7124DAB69AA
:1008A8002846984700226B8A2271CCE704232371DB
:1008B8004FF47A73D2E70F4A0121C2F808B0002238
:1008C80086F834103263019327F00EF9019B9BE7F9
:1008D800642BB8BF6423C1E7D8270020783D0020E7
:1008E800000000207C3D0020442C0020E40A002069
:1008F800342C002008510020D02C002038B5064D9B
:10090800002455F8340001341BF054FD1BF09EFD03
:10091800252CF6D138BD00BF30A20208F0B5C46D51
:1009280001712368866823F00103236023684279F4
:1009380023F00103236005466068130320F4405048
:1009480003F4005303436360236801F0010012F0CD
:10095800040F23F4B0534FEA022202F4806214BF5A
:100968004FF48057002723F00C03002843EA0203C2
:1009780007BF002008220C22042011F0020F08BF34
:1009880002463B4313432360A36895B023F44073A6
:10099800A360684628F0B0F9644B9C4200F0AF8031
:1009A800634B9C4200F0A980624B9C4200F0BC80E3
:1009B800614B9C420CBF0F9A109A2368180448BFD9
:1009C8005200B2FBF6F306FB1322B2EB560F226875
:1009D80028BF0133110441BF4FF6F0721A40C3F328
:1009E800420313439BB2A3812979EB6D6C7901F023
:1009F8000200002815BF4FF4003200224FF44036A1
:100A08004FF4803611F0010118BF32465E68E707DF
:100A18004CBF324326EA02025A609A6824074CBF48
:100A280042F0080222F008029A601A6842F00102B5
:100A38001A60002930D02A6C002A67D0684627F04F
:100A4800F1FB2020AB6D08904FF480506A69E9688B
:100A5800009309900023286C04938024CDE9063381
:100A68000A9302930192ADF80C10059427F008FC44
:100A78006946286C27F0E4FB2A6CEB6D116841F09D
:100A880001011160996841F0400199605268287924
:100A980092B22A6500F0020048B36A6C002A30D08E
:100AA800684627F0BFFB6B6D00934FF480530993A2
:100AB800802300242A69686C05931023ADF80C2064
:100AC800029308940494CDE906440A9427F0D8FBCD
:100AD8006946686C27F0B4FB6A6CEB6D116841F0ED
:100AE8000201116054609A6842F080029A601A68A4
:100AF80042F001021A6015B0F0BD0D9A5DE70C9A3C
:100B08005BE71A6842F080021A60F0E720221A6256
:100B18001A6842F020021A601A6842F010021A603D
:100B2800287900F00200B7E70E9A46E7003801403E
:100B38000044004000480040004C0040F0B5C46D3F
:100B48008160236823F0010323602368427923F03E
:100B580001030E460179236005466068130320F4FB
:100B6800405003F4005303436360236801F001001D
:100B780012F0040F23F4B0534FEA022202F4806209
:100B880014BF4FF48057002723F00C03002843EAD2
:100B9800020307BF002008220C22042011F0020FD4
:100BA80008BF02463B4313432360A36895B023F470
:100BB8004073A360684628F09FF8654B9C4200F09C
:100BC800AF80644B9C4200F0A980634B9C4200F0CC
:100BD800BC80624B9C420CBF0F9A109A2368180481
:100BE80048BF5200B2FBF6F306FB1322B2EB560FD6
:100BF800226828BF0133110441BF4FF6F0721A4032
:100C0800C3F3420313439BB2A3812979EB6D6C793B
:100C180001F00200002815BF4FF4003200224FF403
:100C280040364FF4803611F0010118BF32465E6835
:100C3800E7074CBF324326EA02025A609A68240743
:100C48004CBF42F0080222F008029A601A6842F08B
:100C580001021A60002930D02A6C002A67D0684641
:100C680027F0E0FA2020AB6D08904FF480506A69B5
:100C7800E968009309900023286C04938024CDE947
:100C880006330A9302930192ADF80C10059427F0ED
:100C9800F7FA6946286C27F0D3FA2A6CEB6D1168CD
:100CA80041F001011160996841F040019960526872
:100CB800287992B22A6500F0020048B36A6C002ACB
:100CC80030D0684627F0AEFA6B6D00934FF480532E
:100CD8000993802300242A69686C05931023ADF8D2
:100CE8000C20029308940494CDE906440A9427F052
:100CF800C7FA6946686C27F0A3FA6A6CEB6D11684D
:100D080041F00201116054609A6842F080029A60D2
:100D18001A6842F001021A6015B0F0BD0D9A5DE73D
:100D28000C9A5BE71A6842F080021A60F0E720220A
:100D38001A621A6842F020021A601A6842F0100219
:100D48001A60287900F00200B7E70E9A46E700BF5C
:100D5800003801400044004000480040004C00407A
:100D680010B5044629F084F981B22046BDE8104048
:100D78001EF098BE1EF096BE2DE9F04F4A4085B091
:100D880098461D4FD34306460D460024039320463C
:100D980023F0DAFA0E9B184228D0039B174ADFF893
:100DA80060A0034214BF4FF001094FF0000910EA98
:100DB800050302934FF00C0303FB04234946D3F8C1
:100DC80008B0CDF800B014BF3A4652464346304604
:100DD8001DF0B0FA029ACDF800B04346002A14BFBD
:100DE80052463A46494630461DF0BCFA0134182CA2
:100DF800CDD105B0BDE8F08FF5D3020864AD020887
:100E080078D202082DE9F04F354C87B08046354A34
:100E18002378608802EB8303D3F8F4911DF042FE37
:100E2800D0E902A30493304B93F8F83013B9CDF806
:100E380010A09A4608F04003DFF8B8B005930026E2
:100E4800A379002B08BF01239E4206DB274B0834F9
:100E58009C42DCD107B0BDE8F08F6279237906FBAC
:100E68000323049A0136D55CBAF1000F11D1B5FA03
:100E780085F77F090DB305F00F032D09403502935F
:100E8800CDE900654B465A46394640461DF06AFA98
:100E9800D6E71AF80330EA1A57425741C3B103F0AC
:100EA8000F021B0940330292CDE900635A464B46B4
:100EB800394640461DF03EFADCE7059B002BBFD1C2
:100EC80000964B460A4A394640461DF04BFAB7E7AA
:100ED80000964B46064A394640461DF02BFAC9E7AC
:100EE80058A302081CA20208E40A002010A4020861
:100EF80095D202087FD2020838B50B4B03EBC00429
:100F08000D4694F83C21094803EB8203D3F8F41109
:100F18001CF054FC94F842312BB1691C0448BDE81C
:100F280038401CF04BBC38BD1CA2020878F10208FE
:100F38003DF302087FB50B4B04930B4B03930B4B0C
:100F480002930B4B01930B4B00930B4A0B4B0C4931
:100F58000C481CF033FC0C48062107B05DF804EB84
:100F68001CF00DB8EAD20208EFD20208F7D2020844
:100F780000D302080CD30208A9D202087F1B002064
:100F8800B4D20208BFD2020812D302082DE9F04FEA
:100F980093B00025DFF8A0B1DFF8BCA1DFF8BC9161
:100FA8000795A84608A9E8B21FF0C4FE9DF82830A6
:100FB800002B6ED0022D40F099809DED117A99F8A2
:100FC8000040089BB5EE407AF1EE10FA1BBFDFED4A
:100FD800566AC6EE877A0026FDEEE77A1EBFF8EE5F
:100FE800E77AFDEEE77A17EE906A012C77D996FB3F
:100FF800F4F41A4602214D481CF0E0FB0D9A002A31
:1010080000F0898041F2883002FB04004FF47A73C3
:10101800B0FBF3F00F9B002B7FD041F2883103FB2C
:1010280004114FF47A7CB1FBFCF1062D18BF079F21
:101038009BF803C01EBF7F1880440797BCF1000FC0
:101048006DD04FF47A7C0E9FB7FBFCFCCDF810C036
:101058004FF00A0C91FBFCFE0CFB1E11CDE902E1DE
:1010680090FBFCF10CFB1100CDE900102146304843
:101078001BF085FF022D08D199F80030012B04D907
:10108800324609992B481BF07AFF0AEB8513002298
:101098009A630135132D85D1274BDB78E3B1274BB4
:1010A80027481968274B1A684FF47A73B1FBF3F392
:1010B8002549520909681BF062FF0798079B0A2215
:1010C80093FBF2F302FB130798FBF2F1009702FB84
:1010D80011821E481BF053FF13B0BDE8F08F099A28
:1010E8001B4802211CF06AFB344687E7109C5CB160
:1010F80007EE904ADFED0C6AF8EE677A86EEA77A7B
:10110800FDEEC77A17EE904A089A084829461CF05F
:1011180055FB002672E710467CE7194685E721460D
:101128000C481BF02CFFA5E7002474492AD30208B9
:101138004CD3020870D30208781B002050340020DA
:1011480080D302084834002054340020A0D3020879
:1011580039D302087CD30208100200204410002072
:1011680010B5094C238823EA00009842208009D052
:10117800064B41F20241FF2219809A700E2023F09B
:1011880013F92388184610BD381200208C2F002030
:1011980010B5094C238818439842208009D0074B82
:1011A80041F20241FF2219809A700E2023F0FCF8C8
:1011B8002388184610BD00BF381200208C2F00204D
:1011C800024A136818431060704700BF4426002085
:1011D800F8B55F4B5F4E6048604D012450220021F6
:1011E8001C7028F0C4FF5E4A5E49002330460B603D
:1011F80013601FF0DBFD214620461FF023FE214629
:1012080006201FF01FFE6C7A574B211C1A8D574B76
:1012180093FBF2F318BF0121642BB8BF64230820A5
:10122800C6F890311FF00EFEAF7A391C4FF0090056
:1012380018BF01211FF006FEAB7B002B48D04C4D98
:10124800002C4FD1391C18BF01214A4C0A201FF02D
:10125800F9FD2368DF0756D4980768D4D9065FD408
:10126800012105201FF0EEFD002107201FF0EAFDF7
:1012780001210B201FF0E6FD21680C20C1F380013D
:101288001FF0E0FD23685A0756BF29680121C1F302
:10129800C0110E201FF0D6FD29684B0524D4C1F3D8
:1012A800C06110201FF0CEFD2B6813F4C02F14BFAF
:1012B8000121002111201FF0C5FD2F4B19680031B5
:1012C8004FF0120018BF0121BDE8F8401FF0BABD69
:1012D800EB7B274D002BB3D1296811F48021B4D0C2
:1012E800002CAFD00121B0E701210F201FF0AAFD8B
:1012F800224B29685B78083B012B9CBF4FF4FA63AB
:10130800C6F8D033CBE71E4B1B68642BB8BF6423E9
:1013180001210220C6F890301FF094FD23689BE756
:1013280029680D20C1F340211FF08CFD98E70121A9
:1013380003201FF087FD134BDB6C642BB8BF6423BD
:1013480001210420C6F8D0301FF07CFD236885E712
:101358004434002010020020F43300200C1B00202D
:1013680058340020F03300200C52002040420F0077
:10137800F05E0020D82700205C280020A42400204C
:10138800B41E002090260020024B01224FF40010CA
:101398001A7015E720260020022838B504460FD811
:1013A80000EB4013094A0A490A4D0C7000EB43034D
:1013B80002EB430318462B6008F0A8FB09F0B2F9CA
:1013C800601CC0B2BDE8384023F0DEB89C1B00208A
:1013D800781B00208C1B00202DE9F04FA34BA44D57
:1013E8001A782978D20785B0034658D5A14CA24E61
:1013F80001297ED0C0F09D80022944D0E27B62B3EF
:10140800A28952B39D48007838B39D489FED9D6AE4
:10141800D0ED026A07EE902AF8EEE66AB8EE677A2F
:10142800F8EEE77A77EE666A66EE866A86EEA77A5F
:10143800FDEEC77A17EE902A002AC0F21381642ABB
:1014480000F3A081002A00F00D81D2B2207C9042E6
:101458002CBF01200020307000E03078257A632D01
:1014680006D8894E022932787DD0002A40F08C8037
:10147800864AA37B814238BF01461170002B4DD1AB
:1014880005B0BDE8F08F8248824A008812889042F1
:10149800B4D98149814A0968C2F8FC1060E07C4FE0
:1014A800744C3888CA1E012A40F29C807A88821AB5
:1014B800002AB8BF5242142A05DCE28882427ED84C
:1014C800268886427BD36C4E754A1278022A8FD1C1
:1014D80078883A88694F121A002AB8BF5242142AEB
:1014E80070483F788780CCBF002201220129C28042
:1014F80080D1684A66481288677C0088D21B90426F
:101508004BDD694A1288824238BF0021624838BFE1
:101518002970624A0068C2F8FC006FE7012900F0F0
:101528009B800229ACD1072005B0BDE8F04F22F01E
:101538003BBF5D4A56481288677C0088D21B9042A0
:101548005548E6DC554FE27D0068D7F8FC7002EBA1
:101558008202C01B02EB8202B0EB820FFFF64EAF95
:10156800012129704AE77AB9012773603770C5F1FC
:1015780064054E4B02FB05F283FB0253D217A2EB24
:10158800A3526432727073E772689A1A484B9A428F
:10159800C8BF75703FF76CAFE9E73F483F4F227E01
:1015A8000068D7F8FC7002EB8202C01B02EB8202D3
:1015B800B0EB820FFFF622AF022129701EE7B0EBD5
:1015C800420F2D4E80DCDFF8B4E0DFF8DCC0314894
:1015D80000220321317029708EF80020ACF8002019
:1015E800028071E7E28882422FD8268886422CD36F
:1015F8007A88821A002AB8BF5242142A3FF763AF8A
:101608001D4E227D4FF0000986F8009085F8009065
:10161800002A4FD0194849460270B4F804C022483D
:10162800B4F80280DFF86CE092B21CFB02FCA0F870
:1016380000C018FB02F21448AEF800204FF0640C0A
:10164800002280F801C042603EE7B0EB420FCFDCD9
:1016580003293FF438AF29E7082005B0BDE8F04F6B
:1016680022F0A2BE02203070F8E600BFBA60002067
:101678008C3300200C1B0020B4330020B113002051
:10168800782D00200000C84294330020E02C002070
:10169800702B002090330020DC490020E40A002051
:1016A800783D00207C3D00208E3300206BCA5F6BA4
:1016B8007F969800374A21881268B0FBF1F1013112
:1016C800082992F97200DFF8D880A8BF0821CAB2A9
:1016D800884288F80020009156D0002854D02E481F
:1016E800DFF8C0E090F800B00BF1010CAEFB0C1075
:1016F800410801EB4100ACEB0001594501918C46D2
:1017080042D026494FF0860A0AFB0C19009999F92C
:101718007290494560462BD0CDF808A0CDF800E07E
:101728004FF0FF3A039303E09EF9729089452DD05C
:10173800009B0CF1010EA3FB0E3C4FEA5C0C029BD4
:101748000CEB4C0CAEEB0C0C9E46144BBAF1000F94
:101758000EFB0C3E03DAB9F1000F08BF8246DC45E8
:101768006046E1D1039BCDF804A0514600290BDB6C
:101778009DF804000093FFF70FFE98F800202978E1
:10178800009B4AE7642261E6002146E70190039B3B
:101798000146EBE78C1B0020781B00209C1B0020D7
:1017A800B1130020ABAAAAAA674B1B68B3F5FA7F4E
:1017B80010B500F2C080654BDA885C899889D989B0
:1017C800B2F57A6F84BF4FF47A62DA801A89B2F57B
:1017D8007A6F84BF4FF47A621A81B4F57A6F84BF46
:1017E8004FF47A645C81B0F57A6F88BF00201A8A5A
:1017F80088BF9881B1F57A6F84BF4FF47A61D98137
:10180800B2F57A6F84BF00221A8284429CBF0020FE
:101818005881914298BF0022998B98BFDA81DA8B60
:10182800914284BF00229A839A784949012A91F803
:101838004C1047D00A294AD00C2979D19FED457A16
:10184800454CA278062A97BF4449DFED456A01EB6B
:101858008201D1EDD26A2179002941D0013A032AC7
:101868000AD8B7EE000A80EE260A28F001FC238881
:10187800984228BF184620803A4B3B489A78022A5B
:1018880004BF00229A70394A5378052B95BF38490E
:10189800374903EB0313002394BF01EB4301537053
:1018A80013780160022B9BBF03EB4311314A314B84
:1018B80003EB41038ABF002102EB430311702E4A58
:1018C800136010BD2D485A700A2902702ED19FED61
:1018D8002C7A012AB4D10A2932D19FED2A7AAFE7AE
:1018E8005B78264907EE903A0A78F8EEE77A67EED1
:1018F800877A07EE102AB8EEC77A27EE277AF4EE31
:10190800C76AF1EE10FAB7DD86EEA77AFDEEC77A60
:1019180017EE903A102BA8BF1023012BB8BF012354
:10192800DBB29A4238BF1A460A70A5E70C2907D0DD
:101938009FED157ACDE74FF000501AF091FD3AE788
:101948009FED127A7CE700BFB41E0020301D0020F6
:10195800F02600200AD7A339043E00201CA2020862
:101968006F1203389C1E00203C0E0020781B0020BC
:10197800B41D00209C1B00208C1B0020441000205C
:101988005304E9380F506E3A6F1203396F12833AD5
:101998000C290ED8DFE801F01B0D0D0D140D0D0DEF
:1019A8000E0D0D0D0700C36923F4006343EA0222FC
:1019B800C2617047C36923F008031A43C2617047C4
:1019C800836923F4006343EA0222826170478369D2
:1019D80023F008031A438261704700BFF0B40C2952
:1019E8002BD8DFE801F0752A2A2A502A2A2A2C2A1D
:1019F8002A2A0700046AB2F80CC0978816686B4D4B
:101A080024F480540462036A4468C16923F40053CF
:101A180043EA0C3321F4E641A84243EA073341EA9A
:101A2800062100F0BC8005F50065A84200F0B780EB
:101A380092684460C16102640362F0BC7047046A42
:101A4800B2F80CC097881668584D24F48074046264
:101A5800036A4468C16923F4007343EA0C2321F044
:101A68007301A84243EA072341EA060100F0848093
:101A780005F50065A8427FD092684460C161F0BC5A
:101A8800C26303627047046AB2F80CC0978816688C
:101A9800464D24F010040462036A4468816923F007
:101AA800200321F0807143EA0C1321F4E641A84297
:101AB80043EA071341EA06214BD005F50065A84221
:101AC80047D0926844608161F0BC826303627047CA
:101AD800046A9389B2F804C01768344E24F00104EC
:101AE8000462046A4568816921F4803124F00204A3
:101AF80043EA0C0321F07301B04243EA040341EACC
:101B080007010ED02A4CA0420BD004F54064A04235
:101B180007D004F58064A04203D004F58064A04295
:101B280010D1D489168A578AB2F806C023F0080360
:101B3800234325F4407523F0040346EA07044CEADE
:101B480003032543926845608161F0BC42630362E8
:101B58007047D589178AD68823F0800343EA05138E
:101B680024F44064558A23F0400344EA870443EA96
:101B7800061344EA8504A4E7D589178AD68823F48E
:101B8800006343EA052324F44054558A23F4806310
:101B980044EA071443EA062344EA05146CE7158A65
:101BA80024F4804444EA851442E700BF002C014035
:101BB800003401402DE9F0474FF48C720021294888
:101BC800294D2A4E2A4FDFF8B880DFF8B890DFF8A1
:101BD800B8A028F0CCFA274A2748DFF8B0C0DFF8C9
:101BE800B0E002F5CC7119E0B3F1804F23D0B342D5
:101BF80026D0BB4226D0634526D0734526D0434520
:101C080026D04B4527D0534528D01C4CA34208BFAB
:101C18004FF4802407D018328A420AD013688342CE
:101C2800E2D14FF40064AB69183223438A42AB61B6
:101C3800F4D1BDE8F0870123EC692343EB61EAE7BF
:101C48000223F9E70423F7E71023F5E72023F3E756
:101C58004FF40054E7E74FF48034E4E74FF40034DE
:101C6800E1E700BF243E00200010024000040040CD
:101C78000008004030CC0208002C01400048014018
:101C88000034014000400140004401400010004081
:101C9800001400402DE9F8432F4D2A69EB6812EA39
:101CA800030826D02D4E4FF00047B8FA88F327FADC
:101CB80003F2D2431B3B2A6108EA0208042B15D819
:101CC800DFE803F0372D23190300D6F81431002B71
:101CD80039D1EB6A1FFA83F9D6F8104134B1236879
:101CE8002046494698476468002CF8D1B8F1000F9F
:101CF800DBD1BDE8F883D6F8F000696B036889B2D8
:101D08009847B8F1000FD0D1F3E7D6F8F400A96BE3
:101D1800036889B29847B8F1000FC6D1E9E7D6F849
:101D2800F800E96B036889B29847B8F1000FBCD195
:101D3800DFE7D6F8FC00296C036889B29847B8F148
:101D4800000FB2D1D5E703F1FF3900231FFA89F953
:101D5800C6F81431C0E700BF00480140243E002007
:101D68002DE9F8432F4D2A69EB6812EA030826D0BB
:101D78002D4E4FF00047B8FA88F327FA03F2D24302
:101D88001B3B2A6108EA0208042B15D8DFE803F098
:101D9800372D23190300D6F8C430002B39D1EB6A4C
:101DA8001FFA83F9D6F8C04034B123682046494663
:101DB80098476468002CF8D1B8F1000FDBD1BDE872
:101DC800F883D6F8A000696B036889B29847B8F120
:101DD800000FD0D1F3E7D6F8A400A96B036889B245
:101DE8009847B8F1000FC6D1E9E7D6F8A800E96B23
:101DF800036889B29847B8F1000FBCD1DFE7D6F87D
:101E0800AC00296C036889B29847B8F1000FB2D1C9
:101E1800D5E703F1FF3900231FFA89F9C6F8C43062
:101E2800C0E700BF00400140243E00202DE9F843F0
:101E38002E4D2A69EB6812EA030826D02C4E4FF083
:101E48000047B8FA88F327FA03F2D2431B3B2A610A
:101E580008EA0208042B15D8DFE803F0352B22190D
:101E68000300D6F89C30002B37D1EB6A1FFA83F9B0
:101E7800D6F8984034B123682046494698476468A4
:101E8800002CF8D1B8F1000FDBD1BDE8F883B06FB2
:101E9800696B036889B29847B8F1000FD1D1F4E7AC
:101EA800F06FA96B036889B29847B8F1000FC8D1E1
:101EB800EBE7D6F88000E96B036889B29847B8F178
:101EC800000FBED1E1E7D6F88400296C036889B217
:101ED8009847B8F1000FB4D1D7E703F1FF390023D1
:101EE8001FFA89F9C6F89C30C2E700BF0008004015
:101EF800243E00202DE9F8432B4D2A69EB6812EAAD
:101F0800030824D0294E4FF00047B8FA88F327FA7F
:101F180003F2D2431B3B2A6108EA0208042B13D8B8
:101F2800DFE803F0322920170300736F002B34D148
:101F3800EB6A1FFA83F9346F34B1236820464946A7
:101F480098476468002CF8D1B8F1000FDDD1BDE8DE
:101F5800F883306D696B036889B29847B8F1000F50
:101F6800D3D1F4E7706DA96B036889B29847B8F1CB
:101F7800000FCAD1EBE7B06DE96B036889B29847E7
:101F8800B8F1000FC1D1E2E7F06D296C036889B29E
:101F98009847B8F1000FB8D1D9E703F1FF3900230A
:101FA8001FFA89F97367C6E700040040243E002041
:101FB8002DE9F8434FF080452A69EB6812EA0308D7
:101FC80024D0294E4FF00047B8FA88F327FA03F2D5
:101FD800D2431B3B2A6108EA0208042B13D8DFE826
:101FE80003F0322920170300F36C002B34D1EB6A7D
:101FF8001FFA83F9B46C34B12368204649469847E0
:102008006468002CF8D1B8F1000FDDD1BDE8F88381
:10201800B06A696B036889B29847B8F1000FD3D1E9
:10202800F4E7F06AA96B036889B29847B8F1000F22
:10203800CAD1EBE7306BE96B036889B29847B8F10E
:10204800000FC1D1E2E7706B296C036889B2984729
:10205800B8F1000FB8D1D9E703F1FF3900231FFA0F
:1020680089F9F364C6E700BF243E00202DE9F84350
:102078005A4D2A69EB6812EA030825D0584E4FF0EA
:102088000047B8FA88F327FA03F2D2431B3B2A61C8
:1020980008EA0208042B14D8DFE803F04A41382F75
:1020A8000300736A002B40F09280EB6A1FFA83F9F1
:1020B800346A34B123682046494698476468002C3E
:1020C800F8D1B8F1000FDCD1464D2A69EB6812EA65
:1020D80003084AD0424E4FF00047B8FA88F327FA6F
:1020E80003F2D2431B3B2A6108EA0208042B39D8C1
:1020F800DFE803F05B51473D27003068696B0368F0
:1021080089B29847B8F1000FBBD1DDE77068A96BB9
:10211800036889B29847B8F1000FB2D1D4E7B06824
:10212800E96B036889B29847B8F1000FA9D1CBE7EA
:10213800F068296C036889B29847B8F1000FA0D1FC
:10214800C2E7D6F8EC30002B39D1EB6A1FFA83F9D5
:10215800D6F8E84034B12368204649469847646871
:10216800002CF8D1B8F1000FB7D1BDE8F883D6F844
:10217800C800696B036889B29847B8F1000FACD101
:10218800F3E7D6F8CC00A96B036889B29847B8F191
:10219800000FA2D1E9E7D6F8D000E96B036889B24D
:1021A8009847B8F1000F98D1DFE7D6F8D400296C2A
:1021B800036889B29847B8F1000F8ED1D5E703F1CB
:1021C800FF3900231FFA89F9C6F8EC30C0E703F19C
:1021D800FF3900231FFA89F9736269E7002C01406F
:1021E800243E0020004401402DE9F8432B4D2A6984
:1021F800EB6812EA030824D0294E4FF00047B8FADA
:1022080088F327FA03F2D2431B3B2A6108EA020843
:10221800042B13D8DFE803F0322920170300736A70
:10222800002B34D1EB6A1FFA83F9346A34B123687E
:102238002046494698476468002CF8D1B8F1000F49
:10224800DDD1BDE8F8833068696B036889B29847C7
:10225800B8F1000FD3D1F4E77068A96B036889B2AD
:102268009847B8F1000FCAD1EBE7B068E96B03688B
:1022780089B29847B8F1000FC1D1E2E7F068296C3C
:10228800036889B29847B8F1000FB8D1D9E703F1CC
:10229800FF3900231FFA89F97362C6E7002C014051
:1022A800243E0020F0B506684D4CB30AA34200F066
:1022B80094800AD94B4CA34200F089800134A34290
:1022C80066D0023CA34267D0F0BD4A3CA34200F06E
:1022D80081800134A34205D0B3F5801FF4D148278B
:1022E800012501E09827032590F805C002232CFA60
:1022F80003F084468340A800002955D0D6F80CE0A6
:1023080044190CEB440C9BB2374C43EA0E030CF116
:10231800040E44F82C1044F82E20F360E319EFF370
:102328001181502282F31288421904EBC202D2F8BA
:1023380010C0BCF1000F03D044F807C01369043380
:10234800421904EBC202576917B11F60536904337D
:10235800421904EBC202976917B11F6093690433ED
:10236800421904EBC202D76917B11F60D36904335D
:102378000022C9B21A6081F31188284404EBC00412
:10238800236A63B9F3684FF6FE721340F360F0BD39
:102398004FF488770625A7E7C0270425A4E7F36844
:1023A80043F00103F360F0BDD6F80CE00E4CDB43BC
:1023B8009BB203EA0E0300EB050E0CEB4E0CF36028
:1023C8000CF1040344F82C1044F82320A6E7E8276E
:1023D800052589E77027022586E72027002583E75A
:1023E8004B00100051001000243E002030B5036857
:1023F8005A4D18885A4CB4FBF2F20139013AAB42F3
:1024080094B283B089B282B20DD0564883420AD0C2
:10241800B3F1804F07D0A0F59830834203D000F580
:102428008060834202D122F0700292B24E48834209
:102438006AD000F58060834241D022F4407200F5F2
:102448008C3092B283421A80D9621C8565D10022F1
:102458001A8601225A611A88404942F001028B42C9
:102468001A806AD0B3F1804F69D0404A934268D04D
:1024780002F58062934266D002F50062934264D00E
:1024880002F58062934262D002F59032934260D0A6
:1024980002F5406293425ED002F58062934217D003
:1024A80002F58062934208BF092212D002A84FF0B9
:1024B800012340F8043D23F07BFC03B030BD01202C
:1024C8001A80D9621C8558611A8802431A80C9E7A4
:1024D8000822274B03EBC20301A893F869438DF840
:1024E8000440012300228DF805308DF807308DF85F
:1024F800062023F05DFC1B2CDFD11E4B019301A8A5
:1025080023F056FC03B030BD01201A80D9621C8527
:1025180058611A8802431A80A7E7124A934296D054
:1025280002F54062934292D002F5806293428ED0C7
:1025380002F5806293428AD08BE70022C9E7012224
:10254800C7E70222C5E70322C3E70422C1E7052241
:10255800BFE70622BDE70722BBE700BF002C01400A
:1025680000A24A040034014000100040000400406A
:102578001CA2020819010001204B98422DD0B0F18D
:10258800804F2CD0A3F5943398422AD003F580636A
:10259800984228D003F50063984226D003F580635B
:1025A800984224D003F59033984222D003F5406333
:1025B800984220D003F58063984207D003F58063E2
:1025C800984208BF092202D00020704708220C4B0D
:1025D80003EBC20393F8680370470022F7E7012270
:1025E800F5E70222F3E70322F1E70422EFE70522E9
:1025F800EDE70622EBE70722E9E700BF002C0140E0
:102608001CA2020810B40C4C10212246002303E03F
:102618000133112B0BD01179884202F11802F7D13E
:1026280003EB430304EBC3005DF8044B7047002041
:102638005DF8044B704700BF30CC02082DE9F84321
:10264800C44A1378A3F11701022905D9C24911F820
:102658003300002840F09E81C04CC14E94F808E039
:10266800DFF82CC300200546315A11F0010706EBAC
:10267800000300F0D5800135EDB24A0802F0773248
:102688008B088A1A4FEAD10803F03333D31A08F0BB
:1026980011329B1A03EB231303F00F33ACFB0382B5
:1026A800D209C2EB02229A1A012A40F3B080022A08
:1026B80007D11FB111F42F7F40F0A9804F0600F118
:1026C8009E80A7481EF066F8A64D802019F0C8FE27
:1026D80000272B4605F5C97E4FF47A6C4FF0640845
:1026E8005A88B2F57A6FB3F84C2088BFA3F802C0B5
:1026F800B2F57A6F9A8888BFA3F84CC0B2F57A6FA2
:10270800DA8888BFA3F804C09988B2F57A6F84BFC5
:102718000022DF809142B3F86010B3F8622098BFBE
:102728009F80914293F8712088BFA3F86070013AA6
:10273800632A93F8722088BF83F871800132D2B27D
:10274800092A88BF83F8727003F16B0019460022CA
:102758008E7A10F8019F0132B14528BF0770032A0D
:1027680001F10601F4D186339E45B9D17E4EB37886
:10277800042B00F0188133B93388B3F5F07F84BF98
:102788004FF4F0733380FFF70FF878488178092900
:1027980002D0002940F0D9807548C179092902D0B2
:1027A800002940F0CE80734F734A3B681A40002AD4
:1027B80000F02C81DA0700F12C81580400F1218106
:1027C800190700F119819A0400F1028113F40043FA
:1027D80000F0B0800023E37384F82330237E2BB30A
:1027E800637E032B00F01A81012B2ED0022B33D0ED
:1027F80000232B83A5F89E30A5F824311EE111F49F
:10280800057F3FF45EAFBEF1070F3FF65AAF0830C1
:1028180028287FF429AF013D022D7FF655AF50E7F8
:1028280093F90230142B7FF428AF4AE7AB816B820F
:10283800A5F89230A5F89830A5F81831A5F81E31FA
:102848002B83A5F89E30A5F82431002385F84F3056
:1028580085F8D53085F85B31072008F0EDFF0028B2
:1028680040F0BB804FF4806021F0E8FC002800F0C5
:10287800BE80424F3C4604F17D057837617979B1D5
:10288800207858B13E4B02E00633AB4208D013F82B
:10289800052C8A42F8D11A78002AF5D008F076FF7C
:1028A8000634BC42EAD1012019F0DAFD4FF4005099
:1028B80019F0D6FD4FF4804019F0D2FD4FF4803066
:1028C80019F0CEFD4FF4003019F0CAFD4FF4802006
:1028D80019F0C6FD2B482C4C19F0C2FD4FF400101E
:1028E80019F0BEFD4FF0007019F0BAFD4FF080608E
:1028F80019F0B6FDA388002B63D1244A136813F09E
:102908007F4F1CBF00231360936823F4007323F0E8
:1029180002030BB1002393601379013B042B84BF9E
:1029280001231371B378053B032B01D800233371BE
:10293800BDE8F883E27B002A3FF450AF84F82330E7
:102948004CE7083019F0F2FE2DE7103019F0EEFED2
:1029580022E700BF782B0020C0CE0208441B0020CD
:102968000C5200209C1B0020043E0020582F002001
:10297800C8270020F05E002009600002D42D002046
:10298800D92D002020001000FC500020D42C00205D
:102998008180808001EBC3035B68002B7FF45CAE11
:1029A8001723137058E64FF4805019F059FD338BF4
:1029B800B3F57A7F37BF4FF47A72B378B37832833E
:1029C800D9E62078FFF71EFE002896D1A08094E76C
:1029D8001D4819F045FD3B68F8E6072008F0D6FECB
:1029E8004FF4806021F02AFC00287FF442AF4FF0BA
:1029F800006019F035FD3CE7144819F031FD3B68DB
:102A0800E1E6134819F02CFD3B68D9E643F00103D1
:102A18003B60104819F024FD3B68CEE60023AB81EB
:102A28006B82A5F89230A5F89830A5F81831A5F86A
:102A38001E312B83A5F89E30A5F82431637E023B16
:102A4800022B3FF602AF07E70940000201600002CF
:102A580009200002086000022DE9F84F534A544B40
:102A6800934280F0A080534F03F118069B464FF025
:102A78000108514C258862197DB1BA420DD2052D45
:102A88000BD936F8183C6188C3F30B0399420AD076
:102A9800144625886219002DEFD156F8101C5846A7
:102AA8001BF094FF0FE0637913F0030AF0D156F896
:102AB800101C94F8049058461BF088FF36F8181C30
:102AC800B9EB113F57D04FF00008384B0BF1180BFA
:102AD8009B4506F11806CCD3FFF7B0FD374AD37BE8
:102AE800012B5ED0022B55D020261378527834481B
:102AF800344D3549354C02EB021200EB420203EB30
:102B0800431003EB40032A60314A01EB430323607F
:102B1800166008F04BFF2F4B20682F4C4FF0FF3208
:102B28001A6006F0F3FF08F0B3FE2C4B1A891879E7
:102B3800642303FB02F2C8210A4413FB0011284B4B
:102B480028489A6000225960C3E90322C3E9052294
:102B5800C3E9072283F8242083F82520C4F800015C
:102B680017F076FDB4F8040194F8061107F024FF75
:102B78004046BDE8F88F36F8143C56F8100CAA1FEA
:102B8800C3F30B039A4204F10601A8BF1A4627F0C3
:102B9800CAFA9AE7144B9B79002B0CBF20262826EB
:102BA800A3E72826A1E74FF0010895E7C40E03081C
:102BB8002C0A03080000040802F00308781B002010
:102BC800B41D00203C0E00209C1B00208C1B002004
:102BD800980A0020C4010020E40A0020400E0020CA
:102BE80050290020BC270020043E00202DE9F04F8A
:102BF800013085B0C3B20393994C9A4FDFF874A2A1
:102C0800994D9A4E0A23029323F09CFA4FF4FA73D3
:102C1800DFF86CE201934FF01008DAF80430C3F3E0
:102C28000803002B40F0D980EFF31183002B40F00C
:102C3800D4802068AA6823689842FAD133689A42F7
:102C4800F7D8D7F800C04FF47A7101FB0CF39B1A40
:102C5800B3FBFCF301FB00304FF47A7C4FF0010921
:102C6800DAF80430C3F30803002B40F09880EFF340
:102C78001183002B40F093802368A968226893424F
:102C8800FAD132689142F7D83A680CFB02FBABEBF9
:102C98000101B1FBF2F10CFB03131B1AB3F57A7FA8
:102CA800DED3019B013B0193B7D1039823F09EF833
:102CB8004FF47A73DFF8C8E101934FF01008DAF89F
:102CC8000430C3F30803002B40F0A880EFF311830E
:102CD800002B40F0A3802068AA6823689842FAD1A4
:102CE80033689A42F7D8D7F800C04FF47A7101FBDD
:102CF8000CF39B1AB3FBFCF301FB00304FF47A7C16
:102D08004FF00109DAF80430C3F308034BBBEFF3C3
:102D1800118333BB2368A96822689342FAD13268C9
:102D28009142F7D83A680CFB02FBABEB0101B1FB0F
:102D3800F2F10CFB03131B1AB3F57A7FE2D3019B64
:102D4800013B0193BBD1029B013B02937FF45CAF33
:102D58004749484B4848494A0860DA6005B0BDE829
:102D6800F08FEFF3118188F31288D5F808B02B683B
:102D7800DB0344BFCEF80090D5F808B02368DEF82E
:102D88000020C9B281F31188396813440CFB01F2A1
:102D9800A2EB0B02B2FBF1F20CFB0323CBE7EFF340
:102DA800118188F31288D5F808B02B68DB0344BF7B
:102DB800CEF80090D5F808B02368DEF80020C9B234
:102DC80081F31188396813440CFB01F2A2EB0B0262
:102DD800B2FBF1F20CFB03235FE7EFF3118388F3F7
:102DE8001288D5F808C02A68D20342BF0122CEF85B
:102DF8000020D5F808C02068DEF80090DBB283F325
:102E0800118839684FF47A72484402FB01F3A3EB46
:102E18000C03B3FBF1F302FB00301DE7EFF3118362
:102E280088F31288D5F808C02A68D20342BF012265
:102E3800CEF80020D5F808C02068DEF80090DBB294
:102E480083F3118839684FF47A72484402FB01F31E
:102E5800A3EB0C03B3FBF1F302FB00304EE700BF1A
:102E6800DC490020E049002010E000E0E4490020AF
:102E7800FC9F002000ED00E0EFBEADDE0400FA0587
:102E8800D84900202DE9F04F8DB0FFF7D7FBDFF8C8
:102E98007091564A564BB2F8B423564FDFF8648106
:102EA800ADF80620A3EB090300934FF0030A0026B0
:102EB800CDE90A66CDE90866009BCDF8189007931E
:102EC800D8F810301B0641BF4B4BC8F8043003F14B
:102ED8008833C8F8043001238DF82C303423C8F81F
:102EE8000C300222BDF80630ADF8083002A906A859
:102EF80019F018FB022202A94FF6FF7019F061FEC3
:102F08003E4BBB42834629D21C46A58823888DF8B0
:102F18001560C5F30B05C3F30B00A91D1B0B062297
:102F2800ADF81010ADF8120004A906A88DF81430F9
:102F380019F0F8FA5846062204A919F042FEA168C9
:102F480083462A4606A819F0EDFAA16858462A468B
:102F580019F037FE1834BC428346D6D3022203A99F
:102F680006A8ADF80C6019F0DDFA022203A958464C
:102F780019F027FE40BAC343022204A906A8ADF8F7
:102F8800103019F0CFFA099810BB0A989DF82C3028
:102F98004BB980B1BAF1010A8AD10520FFF726FEA4
:102FA8000DB0BDE8F08FD8F8103043F08003C8F8B2
:102FB80010300028EED199F80030AC2BEDD199F8FB
:102FC8000130BE2BE9D119F016FE0028E8D1E4E75C
:102FD80008ABC0F104020021184427F0C8F808A97A
:102FE80006A819F045FACDE90960CFE71CA2020846
:102FF80000000408C40E0308230167452C0A0308CF
:1030080000F003080020024008B5064B02229A731C
:10301800FFF738FFFFF720FD0120BDE8084021F049
:10302800B3BA00BF781B00202DE9F047CE4C2DED38
:10303800028BA36820469847002800F0D480CB4B29
:103048001B780122042B84F85C2000F0D080B4F9AE
:103058001A3006EE903AB4F91C3007EE103AB4F97B
:103068001E3007EE903AF8EEE66AB8EEC77AF8EE48
:10307800E77AC4ED146A84ED157AC4ED167ABC4B70
:103088001B88002B60D0BB4B94ED142AD4ED152A75
:1030980094ED163A93ED008AD3ED054A93ED090AAB
:1030A800D3ED0E3AD3ED120A93ED174A93ED011AB8
:1030B80093ED065AD3ED0A1A93ED0F6AD3ED137AFE
:1030C80093ED187AD3ED045AD3ED0D6AE8EE024A6F
:1030D800E0EE223AA3EE204AA1EE025AA1EEA26A3D
:1030E800A3EE277A93ED038AD3ED167A93ED020ABD
:1030F800D3ED0C0A93ED0B1AD3ED151AC4ED144A4F
:1031080065EEE45AA8EE645A66EEE36AD3ED144A13
:1031180083ED055A67EEC47AE0EE025AA0EEE36A40
:10312800E1EE226AA4EE617AE3EE247AC3ED065A50
:10313800C4ED153A83ED0E6AC3ED0F6A83ED177A75
:10314800C3ED187A84ED164A94F8221009296BD039
:10315800894815F08BFC894E894D3288D5F80031A5
:10316800002A40F02781874A1268510700F1BF8082
:10317800B3F9002094ED156A94ED167A94ED145A7B
:10318800814905EE902AB3F90220B3F9043006EE1E
:10319800902A07EE903AF8EEE55A7C4B0A68D3ED90
:1031A800003A93ED014AD3ED024AF8EEE66AF8EEEA
:1031B800E77A75EE655A76EE666A77EE677AC4ED59
:1031C800145A34EE266A73EEA55A34EEA77A013201
:1031D800C3ED005AC4ED156A83ED016AC4ED167A91
:1031E80083ED027A0A60BDEC028BBDE8F087B4F982
:1031F8001A00B4F91C10B4F91E20654B07EE900AAA
:10320800F8EEE76A07EE901AB8EEE77A07EE902A2A
:10321800F8EEE77AC4ED146A188059809A8084ED34
:10322800157AC4ED167A2AE794ED157AD4ED0D6A6D
:10323800D4ED0E7A94ED0F2AD4ED145AD4ED0A2A5F
:1032480094ED0B3AD4ED0C3A94ED166A94ED104ACD
:10325800D4ED114A94ED125A4E4B67EE266A67EE8A
:10326800277A27EE027AE5EEA26A1B78E5EE837AE2
:10327800A5EEA37AE6EE046AE6EE247AA6EE057ACF
:10328800C4ED146AC4ED157A84ED167A002B7FF428
:1032980062AF414B93ED046AD3ED035A93ED052ACF
:1032A80093ED013AD3ED002AD3ED023A93ED064AA5
:1032B800D3ED074A93ED085A27EE866A67EEA55ABA
:1032C80067EE827AA6EE836AE6EEA25AE6EEA37A63
:1032D800F0EE466AE7EE045AE7EE246AE7EE057A6E
:1032E800C4ED145AC4ED156AC4ED167A33E72B4EB3
:1032F8003288322A00F0E780002A40F02A812848E4
:103308000278002A3FF434AF264ED5F82821D5F8A4
:103318002471D5F8201186FB02ECD217C2EB2C12CF
:10332800B4F818C0A2EB0C029A8086FB012C86FB2D
:103338000726FA17C2EB261200271B4E0770C9177B
:10334800C1EB2C11194819805A8002237781B78163
:103358008373FFF797FDFFF77FFB012021F014F936
:10336800D5F8003104E700BF90260020783D002002
:10337800DC270020E0270020E0260020941200200F
:10338800E40A0020F05E0020001200201012002045
:103398007C3D0020D0060020AC2C0020A816002080
:1033A800A61600201F85EB51B8270020781B0020A7
:1033B80000000000B2F5C87F18BFD5ED427A94ED41
:1033C800147A0CBF5FED067AF8EEE77A4FF0000C3E
:1033D800002077EE877AC4F850C018803788FDEE51
:1033E800E77AB7F5C87F17EE902AC5ED427A57D02D
:1033F800D5ED437A94ED156AD4ED166AC4F854C035
:10340800B8EEE77AD5ED447A5880F8EEE77A37EEE9
:10341800067A77EEA67ABDEEC77AFDEEE77A012F37
:10342800C4F858C017EE108A17EE901A85ED437A43
:10343800C5ED447A988030D1DFF8E4C1B4F818E0DB
:10344800C8318CFB01A9C917C1EBE911C83208F1D1
:10345800C808A1EB0E0E8CFB02A96949A3F804E089
:103468008CFB08ACD2174FEAE878C2EBE912C8EB3C
:10347800EC18DFF8B0C11A80A3F802800223488153
:1034880088818CF80E30FFF7FDFCFFF7E5FA384627
:1034980021F07AF83788D5F80031013F378062E6A5
:1034A80094ED157AD4ED167AC4F854C0BDEEC77AF7
:1034B800FDEEE77A588085ED437AC4F858C0C5ED2B
:1034C800447A9880E9E74E4A1968D2F80A20C5F884
:1034D8001C219FED4C7AB3F90420C5F81411A5F806
:1034E8001821DFED487AD4ED146AC4ED147A00226D
:1034F8001A80328837EE267A322A18BFD5ED497AF3
:103508003288BDEEC77A18BFF8EEE77A85ED487ABB
:1035180094ED157A77EE877A0020FDEEE77A0021A0
:10352800322A6065C5ED497A598039D0D5ED4A7A95
:1035380094ED167AA065F8EEE77A012A77EE877A95
:103548009980FDEEE77AC5ED4A7A07D0013A3280D4
:10355800D5E6D5ED487AB8EEE77AC2E72A482B4F88
:103568000068DFF8C4C03A7082038CF800103DD4BC
:1035780027480021024617780B2F02F10C0218D0B9
:1035880001311929F7D1D5F814211A601C49B5F968
:103598001871D5F81C019F803288C1F80A00D5E758
:1035A800D4ED167AA065FDEEE77A9980C5ED4A7AE2
:1035B800CCE7184FD7F800C04A00BCF1000F09D07B
:1035C80002EB010E00EB8E0E9CF801C09EF801E0A4
:1035D800E645D8D20A44DFF854C00F4900EB820010
:1035E80000223860ACF800200A60CCE70B4A127859
:1035F800032ABDD120F0BAFED5F80031C3E700BFD9
:10360800B827002000000000D42C0020A5160020B8
:1036180064AD0208E42C0020182D0020E02C0020C6
:103628001F85EB51781B0020AA160020142D0020BE
:103638002DE9F04F85B0CDE902109B4DDFF878A257
:10364800029B013B0293013300F02A8122F07AFDAC
:10365800964C974FDFF864E2964E4FF4FA73019355
:103668004FF01008DEF80430C3F30803002B40F0D5
:10367800F680EFF31183002B40F0F1802068AA68F0
:1036880023689842FAD133689A42F7D8D7F800C02D
:103698004FF47A7101FB0CF39B1AB3FBFCF301FBAB
:1036A80000304FF47A7C4FF00109DEF80430C3F3A0
:1036B8000803002B40F0B580EFF31183002B40F096
:1036C800B0802368A96822689342FAD1326891428F
:1036D800F7D83A680CFB02FBABEB0101B1FBF2F146
:1036E8000CFB03131B1AB3F57A7FDED3019B013B56
:1036F8000193B7D1039B6F4E581CC0B222F076FBE2
:10370800DFF8B8E14FF47A730193DEF80430C3F3BD
:1037180008034FF01008002B44D1EFF31183002B5E
:1037280040D12068AA6823689842FAD133689A423F
:10373800F7D8D7F800C04FF47A7101FB0CF39B1A45
:10374800B3FBFCF301FB00304FF47A7C4FF0010926
:10375800DEF80430C3F30803002B44D1EFF31183E0
:10376800002B40D12368A96822689342FAD13268B5
:103778009142F7D83A680CFB02FBABEB0101B1FBB5
:10378800F2F10CFB03131B1AB3F57A7FE0D3019B0C
:10379800013B01933FF454AFDEF80430C3F3080350
:1037A800002BBAD0EFF3118388F31288D5F808C03C
:1037B8002A68D20342BF0122CAF80020D5F808C0FF
:1037C8002068DAF80090DBB283F3118839684FF487
:1037D8007A72484402FB01F3A3EB0C03B3FBF1F349
:1037E80002FB0030B0E7EFF3118188F31288D5F8B7
:1037F80008B02B68DB0344BFCAF80090D5F808B0BE
:103808002368DAF80020C9B281F3118839681344B3
:103818000CFB01F2A2EB0B02B2FBF1F20CFB03234F
:10382800B1E7EFF3118188F31288D5F808B02B6857
:10383800DB0344BFCAF80090D5F808B02368DAF86B
:103848000020C9B281F31188396813440CFB01F2D6
:10385800A2EB0B02B2FBF1F20CFB032342E7EFF3FE
:10386800118388F31288D5F808C02A68D20342BFAA
:103878000122CAF80020D5F808C02068DAF80090BC
:10388800DBB283F3118839684FF47A72484402FB3B
:1038980001F3A3EB0C03B3FBF1F302FB003000E7E9
:1038A80005B0BDE8F08F00BF10E000E0DC49002063
:1038B800E0490020E4490020D849002000ED00E05C
:1038C800224B5B68C3F3080330B4D3B9EFF3118319
:1038D800BBB91F4A1F4D20481368846811688B4282
:1038E800FAD129688C42F7D81C4A11684FF47A72C9
:1038F80002FB01F0001B30BCB0FBF1F002FB03003F
:103908007047EFF31182102383F3128803F1E02349
:10391800D2B29C68196811F4803F11491EBF01207A
:1039280008609C680A4B18680B6882F311880B4A78
:1039380011684FF47A72034402FB01F0001B30BC9B
:10394800B0FBF1F002FB0300704700BF00ED00E0A0
:10395800DC490020E449002010E000E0E0490020B4
:10396800D84900202DE9F84F8046274C274DDFF82D
:10397800A490274EFFF7A4FFDFF89CE0DFF89CC077
:103988004FF0100A4FF47A77DCF80430C3F30803D9
:10399800CBB9EFF31183B3B92368A96822689342BE
:1039A800FAD132689142F7D8DEF8002007FB02FB13
:1039B800ABEB0101B1FBF2F107FB03131B1A434503
:1039C800E2D3BDE8F88FEFF311818AF31288D5F8B6
:1039D80008B02B68DB0342BF0123C9F80030D5F8D3
:1039E80008B02368D9F80020C9B281F31188DEF83D
:1039F8000010134407FB01F2A2EB0B02B2FBF1F239
:103A080007FB0323DAE700BFDC49002010E000E0F1
:103A1800E4490020D8490020E049002000ED00E0FA
:103A28002DE9F04FDFF834C1494CDFF834E1DFF815
:103A38003481484E824648481AF1FF3AC0F08680E1
:103A4800DCF80430C3F30803002B5ED1EFF31183D5
:103A5800002B5AD10568A26803689D42FAD13368E1
:103A68009A42F7D8DEF800704FF47A7101FB07F339
:103A78009B1AB3FBF7F301FB0535DCF80430C3F3FD
:103A880008034FF010094FF47A77F3B9EFF3118375
:103A9800DBB90368A16802689342FAD1326891429F
:103AA800F7D8DEF8002007FB02FBABEB0101B1FB06
:103AB800F2F107FB03135B1BB3F57A7FBCD2DCF88A
:103AC8000430C3F30803002BE0D0EFF3118189F32E
:103AD8001288D4F808B02368DB0342BF0123C8F872
:103AE8000030D4F808B00368D8F80020C9B281F3D0
:103AF8001188DEF80010134407FB01F2A2EB0B0259
:103B0800B2FBF1F207FB0323D5E7EFF31183102291
:103B180082F31288A1682268D20342BF0122C8F842
:103B28000020A168D0F80090D8F80050DBB283F3E9
:103B38001188DEF800704FF47A724D4402FB07F3E7
:103B48005B1AB3FBF7F302FB053596E7BDE8F08F88
:103B580010E000E0E4490020DC49002000ED00E02E
:103B6800E0490020D849002030B4EFF31183102237
:103B780082F31288084809490268094D094C013244
:103B880002608A682A6000222260DBB20A6883F336
:103B9800118830BC704700BFDC49002010E000E00D
:103BA800E4490020D8490020214B70B59C68E36D9A
:103BB800226CDD697AB1636CBBB12A0742BFE36D41
:103BC80008221A62EB0605D5636B03B19847E36DCB
:103BD80010221A6270BDA806EDD5E26ADAB1988C97
:103BE800216B9047636C002BE7D12906E5D5D4E912
:103BF80009028242E16D09D0501CA669A062B25C3C
:103C080026690A85B042D8D3A362D6E70B6823F0A9
:103C180080030B60D1E7E1699B8C6069DBB24E1CC5
:103C2800E6614354E169E368994228BFE261C2E76B
:103C3800583A0020214B70B55C68E36D226CDD6951
:103C48007AB1636CBBB12A0742BFE36D08221A62DE
:103C5800EB0605D5636B03B19847E36D10221A6232
:103C680070BDA806EDD5E26ADAB1988C216B904751
:103C7800636C002BE7D12906E5D5D4E90902824215
:103C8800E16D09D0501CA669A062B25C26690A855C
:103C9800B042D8D3A362D6E70B6823F080030B6049
:103CA800D1E7E1699B8C6069DBB24E1CE661435445
:103CB800E169E368994228BFE261C2E7583A002007
:103CC800214B70B51C68E36D226CDD697AB1636CB9
:103CD800BBB12A0742BFE36D08221A62EB0605D57D
:103CE800636B03B19847E36D10221A6270BDA80692
:103CF800EDD5E26ADAB1988C216B9047636C002BA2
:103D0800E7D12906E5D5D4E909028242E16D09D057
:103D1800501CA669A062B25C26690A85B042D8D355
:103D2800A362D6E70B6823F080030B60D1E7E16953
:103D38009B8C6069DBB24E1CE6614354E169E36821
:103D4800994228BFE261C2E7583A0020002A12DDF2
:103D580070B504460D468E18236820469B68984720
:103D68000028F9D0236815F8011B1B6820469847DE
:103D7800B542F1D170BD70470368DB6A03B11847DB
:103D8800704700BF03689B6A03B11847704700BFBC
:103D980003682DE9F0415D6A1DB12B46BDE8F0418D
:103DA8001847002A174611DD04460E460F4400E066
:103DB80023689B68204698470028F9D0236816F89E
:103DC800011B1B6820469847BE42F1D1BDE8F0812F
:103DD80003685B69184700BF0368DB68184700BFC2
:103DE80003689B68184700BF03685B68184700BFF3
:103DF8002DE9F04F2DED028BBF4BBDB01C7800AF05
:103E08002CB1F437BD46BDEC028BBDE8F08FBB4B3F
:103E18001B685D05F5D5BA4B1B7863B907F1280017
:103E2800C822B84926F07FF93B6B23B107F1280077
:103E380007F172019847FFF743FDB34B93F80080F1
:103E4800B8F1010F8246DCD1B04E30680028D8D0D6
:103E58004FF0000B87F817B0FFF7C6FFAC4D30B333
:103E6800DFF8D0923068FFF7B7FF82B27E2A00F001
:103E7800828299F80510D6F800C0002940F05C81CC
:103E880095F82D31002B00F098801B2A85F82D110C
:103E980040F059816046FFF7A7FF002800F0228311
:103EA800306889F80580FFF79FFF0028DAD195F878
:103EB8003B21002A40F01B81964B9FED978AA3EB8C
:103EC8000A0AFB7D002B9CD095F83B61002E98D107
:103ED800FFF7F6FC1AEB000F40F15E8295F83F61A0
:103EE800002E40F075828D4B5A79197991421CBF8A
:103EF800501C56001A6895F84211925B14BFC0B264
:103F080001205871B2F5826F01F1010385F8423141
:103F180000F0A2812DD9B2F5E26F00F0808140F265
:103F2800B980B2F5046F00F05481B2F5116F00F05A
:103F38003981B2F5E46FC4D1794BD3ED167A93ED9C
:103F4800000A27EE800A002620EE080A26F090F8DC
:103F58001022744B87F8202020210722C7F823005D
:103F68001B6887F8211087F8222078189847FE7573
:103F7800A7E7B2F5007F00F0FC8043D8B2F5807F58
:103F880000F0ED80B2F5887F9BD1664A00261023A9
:103F98000121126887F8203087F8213087F82360DC
:103FA80087F8246087F8256087F8266087F822104C
:103FB80007F120009047FE7583E77D2A00F09D8277
:103FC80095F8301121B180F02002D2B285F8303155
:103FD800B5F82E1195F82CE11144BEF1060F89B2FF
:103FE80072D805EB0E0360460EF1010EA5F82E11EE
:103FF80083F8342185F82CE1FFF7F6FE00287FF4DA
:1040080031AF54E7B2F5047F00F0FC80B2F5806F61
:104018007FF457AF95F843310133DAB2042A1EBF53
:1040280042F2107385F8432153433F4A126802BF96
:10403800012385F8433142F21073002A40F0AA8127
:1040480001333A4A1278D007394A128848BF0433F4
:10405800D10748BF0A33960748BF1433D00548BF75
:104068002833510748BF6433520648BF03F57A63C3
:104078002C48C7F82330102100260422036887F84B
:10408800201087F8216087F8222007F12000984740
:10409800FE7516E7B2F5C06F7AD0B2F5E06F7FF41F
:1040A80010AF1F4BD3ED147A93ED000A27EE800A68
:1040B800002620EE080A25F0DBFF1A4BC7F823007C
:1040C800102107221B68DAE7CAB202EB1121FF2987
:1040D80089F80580A5F82E112ED16046FB60FFF700
:1040E80083FE95F83B21FB68002A00F0FA80013A2C
:1040F80085F83B21E0E600BFB8130020F05E002001
:10410800312C0020F0260020B8600020D44900207F
:10411800E40A002018FCFFFF0000C8420402002047
:1041280090260020B460002044260020BA600020B9
:1041380038120020000000206046FFF755FE0028D6
:104148007FF490AEB3E60D2A7FF4AAAE6046A5F8D8
:104158002E11FFF749FE00287FF484AEA7E68F4AA8
:104168008F4B1268C7F823201021002601221B68F4
:1041780085E78C4B8C4A1B68894882FB0312DB1746
:10418800C3EBA20310210026C7F82330022275E7EB
:10419800844A834B9268C7F8232010210026062200
:1041A8001B686CE7814B1B78002B40F090817C4AA0
:1041B800C7F8233009211023126887F8203087F8C0
:1041C800213087F8221007F1200000269047FE755D
:1041D80077E6774B724AB3F90430126803EB83032E
:1041E8005B0010204021C7F82330082387F82000FF
:1041F80087F8211087F8223007F120000026904721
:10420800FE755EE66B4A6C4BD27A1B88002A40F03A
:104218006381C7F82330624A10230221CCE7674B39
:10422800D3ED157A93ED000A27EE800A002620EEDA
:10423800080A25F01DFF5A4AC7F823001023072152
:10424800126887F8203087F8213087F8221007F1A4
:1042580020009047FE7534E6564B9B7A002B3FF4BE
:1042680030AE95F844311A06032B00F28081DFE85E
:1042780003F02E241602524B19684B7A887AC97AB1
:104288001A4402EB0022002302EB014285F8443174
:104298004348C7F823201023042102688DE74949C1
:1042A8000868817D067C807A090401EB06210144B7
:1042B800013385F844310A44EAE742490868417DF8
:1042C800C67B407A090401EB06210144F0E73D4929
:1042D8000868017D867B007A090401EB0621014408
:1042E800E6E795F83421303A012A3FF6E5ADDFF8E4
:1042F800DCB0C7F80CD0DBF81410D1E90012521A60
:10430800002A40F33E81002285F83C21BB6024F05E
:10431800ABFFBB6895F835112B4ACBF804204FEA60
:10432800511E501FBEF1010FCBF80000DBF81060E2
:1043380040F0218101F00F0011F01001B86040F049
:10434800268195F83C2152B195F83E21B868013292
:1043580002F00F02824200F0308185F83C1195F896
:104368003B2185F83F31D7F80CD0002A3FF4A4ADA3
:104378000023FB75A0E5306887F817B085F82CB1E5
:1043880085F82D8189F805B0FFF72EFD00287FF408
:1043980069AD8CE5023354E6FE7532E570340020D1
:1043A800B4600020782D002067666666B11300208F
:1043B800340E0020C0600020702B002090260020C2
:1043C8003C0E00208C1B00201F0C0020F45E0020F7
:1043D800DFF80CB395F84021DBF81480DBF80C10FB
:1043E800C7F80CD007F1180307F11E0CC7E9083C01
:1043F800D8F8000002F1010E88425FFA8EFE00F044
:104408009A8007F1190102F00F0239623A76D8F85A
:10441800042085F840E18946D8F80010BB60ACEB71
:10442800090C5FFA8CF9521A09F107005FFA82FA4F
:1044380000F4FC70CA45ADEB000D67D252466846E1
:1044480025F071FED8F800205244C8F800206946CB
:10445800524607F1200018F0AAF8DBF81410DBF830
:104468000C20D8F80060087ABB68C8F80460B11A54
:104478004140C9B29642C8F8002085F841110AD0D7
:104488000132C8F8002012F8010C964281EA0001B6
:10449800F6D185F841113A6A501C38621170D7E993
:1044A8000821891A012908DD0020511C3962107081
:1044B800D7E90821891A0129F7DC184624F0FAFE01
:1044C8000023D7F80CD085F83F41FB7599E4814A61
:1044D800128892FBF3F36AE67F4A1278002A43D1E6
:1044E800134696E6306887F8178089F80580FFF745
:1044F8007BFC00287FF4B6ACD9E4604685F83081AF
:10450800FFF772FC00287FF4ADACD0E44A46684659
:1045180025F009FED8F800204A44C8F8002007F121
:1045280020004A46694618F042F8BB6818463446E7
:1045380024F0C0FEC4E7B8F90C1085F840E102F099
:104548000F0242F010020029B8BF42F0200207F122
:10455800190139623A76D8E90012501A07F11A019E
:1045680078763962894657E793FBF2F351E60133CF
:1045780085F844318CE60021084624F059FE0123D1
:10458800EDE695F83C21002A7FF4C4AEBEE6DBF8E0
:1045980008C095F8361195F8370185F83CE1033ADB
:1045A800CBF800200CEB0102726041400022C6F8F3
:1045B80000C085F83D113081B281DBE90092D6E96F
:1045C8000001A2EB09025FFA82F8091A7B6008F180
:1045D8000702CBB202F4FC724345ADEB020D57D291
:1045E80098461A464946684625F09DFD09EB08039A
:1045F8006946CBF800304246304617F0D8FFDBF862
:10460800083031688B42C6E900310CD095F83D215D
:104618000133336013F8010C994282EA0002F7D1A2
:104628000B4685F83D21DBF8001095F83D21087808
:10463800B6F9081090423DD1FA2904BF052285F841
:104648003B21DBF808202549C6E90023DBF81420C4
:10465800DBF80C30536007F1F003002616819681D1
:10466800086843F8D06DDBF8101085F83C611DF040
:1046780079FE013026D03B6A0BB100209847DBF861
:104688001430DBF80C201968C3E90021012366E621
:10469800494642466846C14425F045FD42463046F3
:1046A8006946CBF8009017F082FFBB6885F83E3169
:1046B8007B6854E60023012085F83C3124F0B8FDDE
:1046C80001234CE6DBF8142013680221581C106003
:1046D8001970D0E7702B0020B1130020B0600020C3
:1046E800F45E002003681B68184700BF10B5084C2B
:1046F800236893F82D2012B1DB68984700B910BDE4
:10470800044A236812681A63012283F82E2010BD18
:10471800DC3A0020DC49002010B5054C23681B69F1
:1047280098472368002283F82E201A6310BD00BF23
:10473800DC3A0020704700BF10B5084C23689B6A1C
:1047480098472368002283F82E201A6383F82D20C7
:1047580040F2DC50BDE81040FFF704B9DC3A002015
:10476800054B53F8203033B11A689B88918A0B4265
:1047780018BF1B04936170471C4A002003682DE989
:10478800F04F03F13845A94EAD0A0124755D05F0D7
:104798001F066D09022D04FA06F400F08D81032D21
:1047A80000F08581012D00F03B818088B0FA80F40B
:1047B800C4F11F04A4B2E50803EB850504F007045F
:1047C8002E6AA4000F27A74026EA07062E622E6A43
:1047D80001F0030702FA04F47A1E3443012AC1F3F4
:1047E800810EC1F300182C62C1F3411140F22281FD
:1047F800C60700F10881850700F1F680440700F13B
:10480800E480020700F1D280C60600F1C080850668
:1048180000F1AE80440600F19C80020600F18A8017
:10482800C60578D4850567D4440556D4020545D411
:10483800C60434D4850423D4440412D4020401D415
:10484800BDE8F08F1A6822F040421A601A6842EAFE
:1048580087771F60DA6822F0404242EA8171D960A6
:10486800EEE71A6822F040521A601A6842EA0772A4
:104878001A60DA6822F0405242EA0172DA60DDE733
:104888001A6822F040621A601A6842EA87621A605F
:10489800DA6822F0406242EA8162DA60CCE71A689C
:1048A80022F040721A601A6842EA07621A60DA68EF
:1048B80022F0407242EA0162DA60BBE71A6822F429
:1048C80040021A601A6842EA87521A60DA6822F4CB
:1048D800400242EA8152DA60AAE71A6822F44012DA
:1048E8001A601A6842EA07521A60DA6822F440121B
:1048F80042EA0152DA6099E71A6822F440221A6003
:104908001A6842EA87421A60DA6822F4402242EAC8
:104918008142DA6088E71A6822F440321A601A681D
:1049280042EA07421A60DA6822F4403242EA014257
:10493800DA6077E71A6822F440421A601A6842EA95
:1049480087321A60DA6822F4404242EA8132DA6039
:1049580066E71A6822F440521A601A6842EA073277
:104968001A60DA6822F4405242EA0132DA6054E707
:104978001A6822F440621A601A6842EA87221A60AA
:10498800DA6822F4406242EA8122DA6042E71A6871
:1049980022F440721A601A6842EA07221A60DA683A
:1049A80022F4407242EA0122DA6030E71A6822F003
:1049B800C0021A601A6842EA87121A60DA6822F09E
:1049C800C00242EA8112DA601EE71A6822F0300259
:1049D8001A601A6842EA07121A60DA6822F030028E
:1049E80042EA0112DA600CE71A6822F00C021A6037
:1049F8001A6842EA87021A60DA6822F00C0242EA70
:104A08008102DA60FAE61A6822F003021A601A686C
:104A18003A431A60DA6822F003020A43DA60EAE6E7
:104A2800034D6E6934436C61BFE600BFFCCD0208DC
:104A38000010024000224FF0010C4FF003090CFA5D
:104A480002F636EA00042ED15400D3F808A009FA79
:104A580004F5ED4305EA0A0AC3F808A0D3F808B03C
:104A68000EFA04FA4AEA0B0AC3F808A0B3F804A03D
:104A78002AEA06069E80B3F804A008FA02F646EA77
:104A88000A06B6B29E801E682E401E60D3F800A0AB
:104A980007FA04F646EA0A061E60DE6801FA04F41C
:104AA80035402C43DC600132102AC8D1C8E6054DD8
:104AB800EE693443EC6178E6024DAE693443AC618B
:104AC80073E600BF00100240036803F138422DE985
:104AD800F04F920AA74DAA5C02F01F055209012463
:104AE800022A04FA05F400F09F81032A00F0978156
:104AF800012A00F0518101F003077A1E012AC1F34F
:104B0800810EC1F300188488C1F3411140F2498134
:104B1800E60700F13181A50700F11A81600700F16D
:104B28000581220700F1F080E60600F1DB80A5068A
:104B380000F1C680600600F1B180220600F19C8079
:104B4800E60500F18780A50572D460055FD42205CB
:104B58004CD4E60439D4A50426D4600413D4220422
:104B680001D4BDE8F08F1A6822F040421A601A6832
:104B780042EA87771F60DA6822F0404242EA817190
:104B8800D960BDE8F08F1A6822F040521A601A689E
:104B980042EA07721A60DA6822F0405242EA017269
:104BA800DA602204DDD5DEE71A6822F040621A6076
:104BB8001A6842EA87621A60DA6822F0406242EABA
:104BC80081626004DA60CAD5DDE71A6822F04072B3
:104BD8001A601A6842EA07621A60DA6822F04072BC
:104BE80042EA0162A504DA60B7D5DDE71A6822F463
:104BF80040021A601A6842EA87521A60DA6822F498
:104C0800400242EA8152E604DA60A4D5DDE71A6878
:104C180022F440121A601A6842EA07521A60DA68E7
:104C280022F4401242EA0152DA60220591D5DDE70A
:104C38001A6822F440221A601A6842EA87421A6007
:104C4800DA6822F4402242EA81426005DA607FF5A0
:104C58007EAFDCE71A6822F440321A601A6842EA2A
:104C680007421A60DA6822F4403242EA0142A50596
:104C7800DA607FF56AAFDBE71A6822F440421A600F
:104C88001A6842EA87321A60DA6822F4404242EA35
:104C98008132E605DA607FF556AFDBE71A6822F461
:104CA80040521A601A6842EA07321A60DA6822F437
:104CB800405242EA0132DA6022067FF541AFDBE773
:104CC8001A6822F440621A601A6842EA87221A6057
:104CD800DA6822F4406242EA81226006DA607FF5EF
:104CE8002CAFDBE71A6822F440721A601A6842EAAD
:104CF80007221A60DA6822F4407242EA0122A50605
:104D0800DA607FF517AFDBE71A6822F0C0021A6095
:104D18001A6842EA87121A60DA6822F0C00242EA88
:104D28008112E606DA607FF502AFDBE71A6822F047
:104D380030021A601A6842EA07121A60DA6822F02A
:104D4800300242EA0112DA6022077FF5EDAEDBE7B6
:104D58001A6822F00C021A601A6842EA87021A607E
:104D6800DA6822F00C0242EA81026007DA607FF515
:104D7800D8AEDBE7FCCD02081A6822F003021A60FD
:104D88001A683A431A60DA6822F003020A43A50750
:104D9800DA607FF5C3AEDBE7264A55692C435461D8
:104DA800A9E600224FF0010C4FF003090CFA02F6B5
:104DB80036EA04002ED15000D3F808A009FA00F50D
:104DC800ED430AEA050AC3F808A0D3F808B00EFABA
:104DD80000FA4AEA0B0AC3F808A0B3F804A02AEAC2
:104DE80006069E80B3F804A008FA02F646EA0A0608
:104DF800B6B29E801E682E401E60D3F800A007FA47
:104E080000F646EA0A061E60DE6801FA00F0354040
:104E18002843D8600132102AC8D1BDE8F08F054A6E
:104E2800D5692C43D46166E6024A95692C4394619E
:104E380061E600BF0010024010B50409013C052CD2
:104E480017D80E4B33F8142000F00F0042FA00F385
:104E580013F001030FD0012303FA00F001381040CA
:104E680024F050FE064A074B125D104403EBC000C5
:104E780010BD002010BD184610BD00BF04CE0208AA
:104E8800F4CD0208304000202DE9F04F4B484C4B40
:104E98004C4C4FF090414FF0010A4FF002094FF08F
:104EA80004084FF0080E4FF0100C202740268025EC
:104EB80030F8022B12F0010F1EBF1960A3F804A0EE
:104EC800083312F0020F1EBF1960A3F804900833CC
:104ED80012F0040F1EBF1960A3F80480083312F003
:104EE800080F1EBF1960A3F804E0083312F0100F72
:104EF8001EBF1960A3F804C0083312F0200F1EBFAC
:104F080019609F80083312F0400F1EBF19609E8001
:104F1800083312F0800F1EBF19609D80083312F409
:104F2800807F1FBF4FF4807BA3F804B0196008335B
:104F380012F4007F1FBF4FF4007BA3F804B0196080
:104F4800083312F4806F1FBF4FF4806BA3F804B0CE
:104F58001960083312F4006F1FBF4FF4006BA3F8F9
:104F680004B01960083312F4805F1FBF4FF4805BF0
:104F78001960A3F804B0083312F4005F1FBF4FF4A0
:104F8800005B1960A3F804B0083312F4804F1FBF08
:104F98004FF4804B1960A3F804B00833D20B1CBF40
:104FA80019604FF4004201F580611CBF9A800833F4
:104FB800A1427FF47DAFBDE8F08F00BF04CE0208A8
:104FC800304000200018004800B9704703682DE9F8
:104FD800F04F03F138449C4EA40A0125345D04F0D7
:104FE8001F066409022C05FA06F500F07481032CEB
:104FF80000F06C81012C00F022818088B0FA80F4E6
:10500800C4F11F04A4B2E50803EB850504F0070406
:105018002E6AA4000F27A74026EA07062E622E6AEA
:1050280001F00307A2407C1E3243012CC1F3810E1C
:10503800C1F300182A62C1F3411140F20981C60781
:105048000BD51A6822F003021A601A683A431A60EC
:10505800DA6822F003020A43DA6085070DD51A6878
:1050680022F00C021A601A6842EA87021A60DA68AB
:1050780022F00C0242EA8102DA6044070DD51A6870
:1050880022F030021A601A6842EA07121A60DA68D7
:1050980022F0300242EA0112DA6002070DD51A68DE
:1050A80022F0C0021A601A6842EA87121A60DA68A7
:1050B80022F0C00242EA8112DA60C6060DD51A68EB
:1050C80022F440721A601A6842EA07221A60DA6803
:1050D80022F4407242EA0122DA6085060DD51A6888
:1050E80022F440621A601A6842EA87221A60DA6873
:1050F80022F4406242EA8122DA6044060DD51A6839
:1051080022F440521A601A6842EA07321A60DA68D2
:1051180022F4405242EA0132DA6002060DD51A68DA
:1051280022F440421A601A6842EA87321A60DA6842
:1051380022F4404242EA8132DA60C6050DD51A6887
:1051480022F440321A601A6842EA07421A60DA68A2
:1051580022F4403242EA0142DA6085050DD51A6828
:1051680022F440221A601A6842EA87421A60DA6812
:1051780022F4402242EA8142DA6044050DD51A68D9
:1051880022F440121A601A6842EA07521A60DA6872
:1051980022F4401242EA0152DA6002050DD51A687B
:1051A80022F440021A601A6842EA87521A60DA68E2
:1051B80022F4400242EA8152DA60C6040DD51A6828
:1051C80022F040721A601A6842EA07621A60DA68C6
:1051D80022F0407242EA0162DA6085040DD51A684D
:1051E80022F040621A601A6842EA87621A60DA6836
:1051F80022F0406242EA8162DA6044040DD51A68FE
:1052080022F040521A601A6842EA07721A60DA6895
:1052180022F0405242EA0172DA6002040DD51A689F
:1052280022F040421A601A6842EA87771F60DA68FB
:1052380022F0404242EA8171D960BDE8F08F034C08
:10524800666935436561D8E6FCCD02080010024066
:1052580000224FF0010C4FF003090CFA02F636EA6F
:1052680000042ED15400D3F808A009FA04F5ED4340
:1052780005EA0A0AC3F808A0D3F808B00EFA04FA37
:105288004AEA0B0AC3F808A0B3F804A02AEA0606FB
:105298009E80B3F804A008FA02F646EA0A06B6B2F7
:1052A8009E801E682E401E60D3F800A007FA04F600
:1052B80046EA0A061E60DE6801FA04F435402C430B
:1052C800DC600132102AC8D1BDE8F08F044CE669D1
:1052D8003543E56191E6024CA6693543A5618CE644
:1052E80000100240F8B50B4F97F82C3083B10A4CE8
:1052F8000025A6683079FFF79FFD217D327AFFF7F8
:1053080063FE97F82C300135AB4204F15004F0DC11
:105318000120F8BD68520020F83A002000B9704713
:10532800036803F138422DE9F04F920AB24DAA5CA6
:1053380002F01F0552090124022A04FA05F400F0BC
:105348005F81032A00F05381012A00F00D8101F0EA
:1053580003077A1E012AC1F3810EC1F3001884885D
:10536800C1F3411140F20581E6070BD51A6822F016
:1053780003021A601A683A431A60DA6822F00302D4
:105388000A43DA60A5070DD51A6822F00C021A60E4
:105398001A6842EA87021A60DA6822F00C0242EAC6
:1053A8008102DA6060070DD51A6822F030021A60AF
:1053B8001A6842EA07121A60DA6822F0300242EAF2
:1053C8000112DA6022070DD51A6822F0C0021A60AD
:1053D8001A6842EA87121A60DA6822F0C00242EAC2
:1053E8008112DA60E6060DD51A6822F440721A6056
:1053F8001A6842EA07221A60DA6822F4407242EA1E
:105408000122DA60A5060DD51A6822F440621A60F6
:105418001A6842EA87221A60DA6822F4406242EA8D
:105428008122DA6060060DD51A6822F440521A60AB
:105438001A6842EA07321A60DA6822F4405242EAED
:105448000132DA6022060DD51A6822F440421A6049
:105458001A6842EA87321A60DA6822F4404242EA5D
:105468008132DA60E6050DD51A6822F440321A60F6
:105478001A6842EA07421A60DA6822F4403242EABD
:105488000142DA60A5050DD51A6822F440221A6097
:105498001A6842EA87421A60DA6822F4402242EA2D
:1054A8008142DA6060050DD51A6822F440121A604C
:1054B8001A6842EA07521A60DA6822F4401242EA8D
:1054C8000152DA6022050DD51A6822F440021A60EA
:1054D8001A6842EA87521A60DA6822F4400242EAFD
:1054E8008152DA60E6040DD51A6822F040721A601B
:1054F8001A6842EA07621A60DA6822F0407242EAE1
:105508000162DA60A5040DD51A6822F040621A60BB
:105518001A6842EA87621A60DA6822F0406242EA50
:105528008162DA6060040DD51A6822F040521A6070
:105538001A6842EA07721A60DA6822F0405242EAB0
:105548000172DA6022040DD51A6822F040421A600E
:105558001A6842EA87771F60DA6822F0404242EA16
:105568008171D960BDE8F08F244A55692C43546194
:10557800EDE600224FF0010C4FF003090CFA02F699
:1055880036EA04002ED15000D3F808A009FA00F535
:10559800ED430AEA050AC3F808A0D3F808B00EFAE2
:1055A80000FA4AEA0B0AC3F808A0B3F804A02AEAEA
:1055B80006069E80B3F804A008FA02F646EA0A0630
:1055C800B6B29E801E682E401E60D3F800A007FA6F
:1055D80000F646EA0A061E60DE6801FA00F0354069
:1055E8002843D8600132102AC8D1BDE8F08F034A99
:1055F800D5692C43D461AAE6FCCD0208001002400C
:10560800024A95692C439461A1E600BF001002404C
:1056180010B1036882881A85704700BF10B103680B
:1056280082889A61704700BF18B1838811B10268F7
:10563800936170471B04FAE710B40A4B0A4A1C78B6
:1056480001238340234052F8200029B9B3FA83F19B
:1056580049095DF8044BE7E7191C18BF01215DF8FB
:10566800044BE1E7184A00201C4A002008B5012134
:105678000020FFF7E1FF01210846FFF7DDFF0121C8
:105688000220FFF7D9FF114B1B7803F00503052B08
:1056980018D000210846FFF7CFFF00210120FFF7AF
:1056A800CBFF00210220FFF7C7FF3220FEF7B8F931
:1056B8000020FFF755F80120FFF752F80220FFF706
:1056C8004FF8F2E704F04EFEE3E700BF543A00203B
:1056D8002DE9F04FE04D2DED068B2B7889B004466F
:1056E80033B1DE4E33693046984780F001002870A8
:1056F800DB4B93F800A0BAF1000F00F04182DFF80D
:10570800ACB3D8489BF8455104F5EC415F310160D2
:1057180000211970002D00F0F18114B1013D8BF8C2
:10572800455120460BF086FC002800F02982DBF862
:105738006C31CD49CBF86C41E41A47F230539C42A6
:105748000D68CA4ECA48B5F80EC0CA4FA8BF1C4655
:10575800B4F57A7FB6F90630B8BF4FF47A7404808E
:1057680063454FF001043C7080F22282C2494FF039
:105778007E500860C149C248B6F90080458A91F94F
:10578800044091F800E091F801C0002CA8EB050155
:1057980014BF01274FF0FF370029B8BF4942B1F5C0
:1057A800FA7FA8BF4FF4FA717145C6BFA1EB0E018D
:1057B80007EE901ADFEDB37AB34CC8BFF8EEE77A7C
:1057C8004545B6F90280C4ED007AA8EB0501C4BFCF
:1057D800F1EE677AC4ED007A0029B8BF4942B1F505
:1057E800FA7FA8BF4FF4FA718E45BABFA1EB0E013C
:1057F80007EE901ADFEDA37AB6F90460B8BFF8EEA9
:10580800E77A4545A6EB0501C4ED017AC4BFF1EE80
:10581800677AC4ED017A0029B8BF4942B1F5FA7F29
:10582800A8BF4FF4FA718C45BEBFA1EB0C0C07FB67
:105838000CFC07EE90CA9549ACBFDFED927AF8EE02
:10584800E77AB5420E68C4ED027AC4BFF1EE677A12
:10585800C4ED027A16F4805600F09781B3F5FA6F1A
:10586800A8BF4FF4FA63B3F57A7FB8BF4FF47A73E1
:10587800A3F57A70864B1978002940F08F81854FFF
:10588800854A87FB0013C117C1EB6313591C32F912
:1058980013C032F911106FF0630E0EFB0303A1EB76
:1058A8000C0103FB01F387FB0327DB17C3EB67132B
:1058B80063441BB207EE903AB8EEE78A84ED038A98
:1058C800002E40F0AA81754B1B885A0640F10B81C7
:1058D80040F603017248D4ED011A90ED018AD0ED2B
:1058E800033A90ED029AD0ED005A94ED002A0B404D
:1058F8006C4908BFD4ED022A91ED014A91ED026A84
:10590800D1ED006A91ED030A18BFDFED5E2A664902
:1059180038EE635A74EE460A76EE807A65EE200A0F
:1059280075EEC94A35EE89AA76EEC09A64EEA74AA2
:10593800B0EE603AAAEE293AB0EE645A38EE237A0D
:1059480074EE067AAAEE295AA7EE273AA7EE675A06
:10595800B0EE601A97EE271A33EE243AF6EE008A74
:1059680075EE88AA28EEC33A35EE605A76EE840AB8
:10597800B0EE417AAAEE691AAAEEA03A77EE647AF6
:1059880076EE400A73EEC9AA25EE285AEAEE297A7D
:10599800AAEEA05A71EE244A36EEC44A63EE036AB0
:1059A80073EE893A64EEA84A75EEC85A36EE006A74
:1059B80067EEA87AB0EE667AE3EE844A95EE057A49
:1059C800E5EE056AE5EE867AB1EE648AF0EE665A8F
:1059D800F0EE476AB1EE674AE8EE246A63EE270AFA
:1059E80067EEA43AE4EE275AB1EE450AB0EE606AD3
:1059F800B0EE631AA4EE277A23EE244AE7EEA76AEC
:105A0800A5EE246AA0EE031AE8EE245AB0EE448A02
:105A180031EEA19AE0EE240AA5EE278A66EEA16A85
:105A280072EE028AE5EE033A61EE211A26EE096A61
:105A3800A4EEA47AA0EE274AA2EE256AE0EEA86AB0
:105A4800E2EE081A73EEA33A27EE227A34EE044AFD
:105A5800F0EE005A2CE000BFD6240020A424002039
:105A6800E0240020DC2400203C0E002058260020E2
:105A78003013002028130020C412002080160020B4
:105A8800441B002000000000582D0020F05E00207C
:105A9800943300201F85EB5170120020381200202B
:105AA8008001002094010020A4010020E40A0020C5
:105AB800E2EEA36AA2EE846AA1EEA57ACBED5D6A56
:105AC800C4ED016A8BED5C6A84ED006A8BED5E7A49
